:100000000C9462000C948A000C948A000C948A0070
:100010000C948A000C948A000C948A000C948A0038
:100020000C948A000C948A000C948A000C948A0028
:100030000C948A000C948A000C948A000C948A0018
:100040000C9497050C948A000C9407060C94E10517
:100050000C948A000C948A000C948A000C948A00F8
:100060000C948A000C948A000000000024002700F1
:100070002A0000000000250028002B0000000000DE
:1000800023002600290004040404040404040202DA
:100090000202020203030303030301020408102007
:1000A0004080010204081020010204081020000012
:1000B0000008000201000003040700000000000027
:1000C0000000390611241FBECFEFD8E0DEBFCDBF40
:1000D00012E0A0E0B1E0E2EDFCE102C005900D927B
:1000E000A038B107D9F723E0A0E8B2E001C01D9223
:1000F000A036B207E1F710E0C2E6D0E004C02197D5
:10010000FE010E94570BC136D107C9F70E94C906EC
:100110000C94670E0C940000833081F028F4813039
:1001200099F08230A9F008958730A9F08830C9F09D
:100130008430B1F4809180008F7D03C08091800075
:100140008F7780938000089584B58F7784BD08955C
:1001500084B58F7DFBCF8091B0008F778093B00006
:1001600008958091B0008F7DF9CFCF93DF93282F32
:1001700030E0F901E255FF4F8491F901E656FF4F57
:10018000D491F901EA57FF4FC491CC23A1F081111A
:100190000E948C00EC2FF0E0EE0FFF1FE458FF4FA1
:1001A000A591B491EC91ED2381E090E009F480E019
:1001B000DF91CF91089580E090E0FACF1F93CF9325
:1001C000DF93282F30E0F901E255FF4F8491F901C8
:1001D000E656FF4FD491F901EA57FF4FC491CC2363
:1001E000A9F0162F81110E948C00EC2FF0E0EE0F89
:1001F000FF1FEE58FF4FA591B4918FB7F894EC9183
:10020000111108C0D095DE23DC938FBFDF91CF9111
:100210001F910895DE2BF8CFCF93DF9390E0FC0180
:10022000E656FF4F24918A579F4FFC018491882303
:10023000C9F090E0880F991FFC01E859FF4FA59184
:10024000B491FC01EE58FF4FC591D49161110DC0DE
:100250009FB7F8948C91209582238C9388812823D2
:1002600028839FBFDF91CF910895623051F49FB7EB
:10027000F8943C91822F809583238C93E8812E2BD8
:10028000EFCF8FB7F894EC912E2B2C938FBFEACF42
:100290003FB7F8948091990290919A02A0919B02A5
:1002A000B0919C0226B5A89B05C02F3F19F001967E
:1002B000A11DB11D3FBFBA2FA92F982F8827BC01C0
:1002C000CD01620F711D811D911D42E0660F771FE8
:1002D000881F991F4A95D1F70895AF92BF92CF9288
:1002E000DF92EF92FF920F931F93CF93DF936C01F6
:1002F0007B018B01040F151FEB015E01AE18BF08D7
:10030000C017D10759F06991D601ED91FC91019088
:10031000F081E02DC6010995892B79F7C501DF91A0
:10032000CF911F910F91FF90EF90DF90CF90BF90F2
:10033000AF900895FC01538D448D252F30E0842F1C
:1003400090E0821B930B541710F0CF9608950197FD
:100350000895FC01918D828D981761F0A28DAE0FEA
:10036000BF2FB11D5D968C91928D9F5F9F73928F71
:1003700090E008958FEF9FEF0895FC01918D828D9D
:10038000981731F0828DE80FF11D858D90E008956A
:100390008FEF9FEF0895FC01918D228D892F90E0C2
:1003A000805C9F4F821B91098F73992708958DE977
:1003B00092E00E94CB0121E0892B09F420E0822FFA
:1003C000089580E090E0892B29F00E94D7018111E7
:1003D0000C9400000895FC01A48DA80FB92FB11D45
:1003E000A35ABF4F2C91848D90E001968F7399276B
:1003F000848FA689B7892C93A089B1898C91837049
:1004000080648C93938D848D981306C00288F38941
:10041000E02D80818F7D80830895EF92FF920F936E
:100420001F93CF93DF93EC0181E0888F9B8D8C8DA0
:1004300098131AC0E889F989808185FF15C09FB794
:10044000F894EE89FF896083E889F9898081837057
:10045000806480839FBF81E090E0DF91CF911F9106
:100460000F91FF90EF900895F62E0B8D10E00F5F27
:100470001F4F0F731127E02E8C8D8E110CC00FB6FD
:1004800007FCFACFE889F989808185FFF5CFCE0195
:100490000E94EB01F1CFEB8DEC0FFD2FF11DE35A24
:1004A000FF4FF0829FB7F8940B8FEA89FB89808118
:1004B0008062CFCF0C940D02CF93DF93EC01888D37
:1004C0008823B9F0AA89BB89E889F9898C9185FDCF
:1004D00003C0808186FD0DC00FB607FCF7CF8C915D
:1004E00085FFF2CF808185FFEDCFCE010E94EB0129
:1004F000E9CFDF91CF910895FB0101900020E9F74A
:100500003197AF01461B570B0C946D018F929F9250
:10051000AF92BF92EF92FF920F931F93CF93DF930F
:10052000CDB7DEB7A1970FB6F894DEBF0FBECDBF33
:100530007C01FA01CB0119A2223008F42AE08E01D5
:100540000F5D1F4F822E912CB12CA12CBF01A50154
:1005500094010E94350BF901CA016A300CF5605D07
:10056000D8016E938D01232B242B252B79F790E056
:1005700080E0109721F0BD01C7010E947C02A19686
:100580000FB6F894DEBF0FBECDBFDF91CF911F91A4
:100590000F91FF90EF90BF90AF909F908F90089534
:1005A000695CDECFCF92DF92EF92FF920F931F93A1
:1005B000CF93DF936B01770FEE08FF084A305105A8
:1005C000F1F42AE0F7FE1CC0EC016DE20E945A0231
:1005D0008C0144275527BA014C195D096E097F0922
:1005E0002AE0CE010E948602800F911FDF91CF91F9
:1005F0001F910F91FF90EF90DF90CF900895242FDF
:10060000B701A601DF91CF911F910F91FF90EF905D
:10061000DF90CF900C948602CF93DF93BC018DE9DD
:1006200092E00E947C02EC0168E171E08DE992E0C9
:100630000E947C028C0F9D1FDF91CF910895611560
:10064000710511F00C947C0290E080E008950F9306
:100650001F93CF93DF938C0161E080913A030E9456
:10066000DE0061E0809140030E94DE00C091420301
:10067000D091430390913C0380913D0301301105DB
:1006800009F047C01C2F0D2FC92FD82F809146038A
:1006900090914703892B89F160E0812F0E94DE0051
:1006A0006BE171E08DE992E00E941F034AE050E0A7
:1006B000612F702F8DE992E00E94D20262E271E018
:1006C0008DE992E00E941F034AE050E0BE018DE9EF
:1006D00092E00E94D2026AE271E08DE992E00E940B
:1006E0001F034AE050E064E670E08DE992E00E946A
:1006F000D20287E391E00E940C0361E08C2F0E94FC
:100700000C0161E08C2FDF91CF911F910F910C9420
:10071000DE008C01BBCF2F923F924F925F926F927F
:100720007F928F929F92AF92BF92CF92DF92EF9281
:10073000FF921F93CF93DF93EC016A017B01722E2E
:10074000AB019601CB01B6010E94700C69E371E028
:10075000811126C046015701E894B7F82FEF3FEF0B
:100760004FE75FE7C501B4010E94700C81110CC016
:100770002FEF3FEF4FE75FE7C501B4010E94DA09B1
:100780006DE371E0181664F02FEF3FEF4FE75FE481
:10079000C701B6010E946B0C1816B4F461E471E055
:1007A000CE01DF91CF911F91FF90EF90DF90CF901E
:1007B000BF90AF909F908F907F906F905F904F9081
:1007C0003F902F900C947C022FEF3FEF4FE75FECB0
:1007D000C701B6010E94DA0987FDE0CF20E030E0D2
:1007E000A901C701B6010E94DA09312C212C87FF2B
:1007F00009C06DE2CE010E945A021C01F7FAF09482
:10080000F7F8F09410E060E070E080E09FE371168C
:1008100041F020E030E040E251E40E94CA0B1F5F4B
:10082000F6CFA70196010E945E0B2B013C010E94AE
:100830003C0C4B015C012AE0BC01A401CE010E94EA
:1008400086027C01E20CF31C1123C1F1C501B40145
:100850000E94DF099B01AC01C301B2010E945D0B44
:100860004B015C016EE2CE010E945A02E80EF91EB5
:10087000115020F120E030E040E251E4C501B40124
:100880000E94400A2B013C010E943C0C4B01B12C00
:10089000A12C2AE0B501A401CE010E948602E80E37
:1008A000F91EC501B4010E94DF099B01AC01C3011F
:1008B000B2010E945D0B4B015C01DACFC701DF91F1
:1008C000CF911F91FF90EF90DF90CF90BF90AF90AE
:1008D0009F908F907F906F905F904F903F902F9060
:1008E00008958F929F92AF92BF92CF92DF92EF9234
:1008F000FF920F931F93CF93DF93CDB7DEB7C988D5
:10090000DA888E010D5E1F4FF12CE12CF601EE0D01
:10091000FF1D6081662309F4D5C0653209F0CDC0A2
:1009200081818E3219F48FEFE81AF80AF601EE0D84
:10093000FF1D218180ED820F8A3018F5EFEFEE1A4E
:10094000FE0A022E000C330B20533109FFEFEF1A81
:10095000FF0AF601EE0DFF1D8081843689F144F512
:10096000883509F499C084F4853209F4A5C082342D
:1009700009F44AC062E571E08DE992E00E941F032C
:1009800013C022E030E0E2CF823609F443C0833660
:1009900089F75801F2E0AF0EB11CF80160818DE9D2
:1009A00092E00E945A028501FFEFEF1AFF0AAECFD4
:1009B0008C3609F44BC074F48636D1F18936D1F601
:1009C0005801F2E0AF0EB11CF801608171814AE07C
:1009D00050E029C0833709F457C0883709F462C052
:1009E0008F3641F65801F2E0AF0EB11CF80180815C
:1009F000918165E471E0892B11F069E471E08DE982
:100A000092E00E941F03CFCF6CE471E08DE992E089
:100A10000E941F03580182E0A80EB11CF8016081FA
:100A2000718142E050E08DE992E00E94D202BBCF9A
:100A30005801F4E0AF0EB11CF80140815181628190
:100A400073818DE992E00E948B03ADCFF801808025
:100A50009180A280B3800C5F1F4F2AE0B501A401F2
:100A6000B7FE0DC06DE28DE992E00E945A02442764
:100A70005527BA01481959096A097B092AE08DE905
:100A800092E00E94860290CF5801F2E0AF0EB11CB6
:100A9000F80160817181B3CF6FE471E08DE992E07C
:100AA0000E941F035801F2E0AF0EB11CF8016081F3
:100AB000718140E150E0B7CF65E28DE992E00E949C
:100AC0005A0272CFDF91CF911F910F91FF90EF905B
:100AD000DF90CF90BF90AF909F908F9008950F932D
:100AE0001F93CF93DF93EC0188819981009759F090
:100AF0002A813B812617370730F081E0DF91CF91C3
:100B00001F910F9108958B016F5F7F4F0E949A0D87
:100B1000009759F0998388831B830A832C813D8138
:100B2000232B59F7FC011082E8CF80E0E7CF1F921A
:100B30000F920FB60F9211242F933F938F939F9391
:100B4000AF93BF938091950290919602A0919702E6
:100B5000B09198023091940223E0230F2D3758F57D
:100B60000196A11DB11D209394028093950290934C
:100B70009602A0939702B093980280919902909167
:100B80009A02A0919B02B0919C020196A11DB11DF9
:100B90008093990290939A02A0939B02B0939C0237
:100BA000BF91AF919F918F913F912F910F900FBE69
:100BB0000F901F90189526E8230F0296A11DB11DD6
:100BC000D2CF1F920F920FB60F9211242F933F9303
:100BD0004F935F936F937F938F939F93AF93BF9345
:100BE000EF93FF938DE992E00E94EB01FF91EF916B
:100BF000BF91AF919F918F917F916F915F914F9135
:100C00003F912F910F900FBE0F901F9018951F923C
:100C10000F920FB60F9211242F938F939F93EF9300
:100C2000FF93E091AD02F091AE028081E091B302BA
:100C3000F091B40282FD1BC090818091B6028F5F5B
:100C40008F732091B702821741F0E091B602F0E075
:100C5000E356FD4F958F8093B602FF91EF919F91E0
:100C60008F912F910F900FBE0F901F90189580813C
:100C7000F4CFCF93DF93EDE9F2E01382128288EE96
:100C800093E0A0E0B0E084839583A683B7838AE0F5
:100C900091E09183808385EC90E09587848784EC54
:100CA00090E09787868780EC90E0918B808B81EC39
:100CB00090E0938B828B82EC90E0958B848B86EC1A
:100CC00090E0978B868B118E128E138E148EC0E55A
:100CD000D3E086E0888387E0898388E08A8384E69E
:100CE0008B83198681E088871C821D821E821F8269
:100CF0008FEF9FEF9B878A8761E086E00E940C015F
:100D000061E089810E940C0161E08A810E940C01EE
:100D1000CCE4D3E01982188283E08A8382E08B835B
:100D200061E083E00E940C0161E08B810E940C0174
:100D300060E08A810E94DE0060E08B810E94DE001C
:100D4000EAE3F3E080E090E0A0E8BFE386879787DE
:100D5000A08BB18B84E090E09183808385E090E06C
:100D60009383828383E090E09583848387E090E09F
:100D70009783868386E090E09187808788E090E083
:100D80009387828781E090E095878487DF91CF9178
:100D90000895CF93DF9300D000D000D0CDB7DEB759
:100DA000789484B5826084BD84B5816084BD85B546
:100DB000826085BD85B5816085BD80916E00816052
:100DC00080936E00109281008091810082608093F8
:100DD00081008091810081608093810080918000FA
:100DE0008160809380008091B10084608093B10025
:100DF0008091B00081608093B00080917A0084601F
:100E000080937A0080917A00826080937A0080914A
:100E10007A00816080937A0080917A008068809364
:100E20007A001092C10010929002109291021092DA
:100E300092021092930210928C0210928D021092E4
:100E40008E0210928F02E091AD02F091AE0282E02C
:100E50008083E091A902F091AA021082E091AB0296
:100E6000F091AC028FEC80831092B502E091B10258
:100E7000F091B20286E08083E091AF02F091B0027F
:100E8000808180618083E091AF02F091B002808127
:100E900088608083E091AF02F091B0028081806829
:100EA0008083E091AF02F091B00280818F7D8083DA
:100EB00061E089E00E940C0161E08AE00E940C017F
:100EC00062E08BE00E940C0162E08CE00E940C0169
:100ED00061E080913A030E940C0161E080913C0343
:100EE0000E940C0160E080913E030E940C0161E0D1
:100EF000809140030E940C0161E0809142030E94B6
:100F00000C0160E0809144030E940C018091460333
:100F100090914703892B09F184E591E00E940C032D
:100F20006AE671E08DE992E00E941F034091480358
:100F30005091490360914A0370914B0322E08DE97F
:100F400092E00E948B0368E171E08DE992E00E94DB
:100F50007C028BE791E00E940C031A8219821C82AA
:100F60001B821E821D8267E070E0CE0101960E9406
:100F70006F0529813A81811115C12115310519F0BB
:100F8000C9010E94110D1A8219821E821D821C82C3
:100F90001B8266E070E0CE0101960E946F052981F8
:100FA0003A81811109C12115310519F0C9010E9449
:100FB000110D1A8219821E821D821C821B828A8157
:100FC0008F9389818F9389E991E09F938F938DE926
:100FD00092E09F938F930E94710489819A810F9070
:100FE0000F900F900F900F900F90009711F00E94AC
:100FF000110D21E4822E22E0922E3DE9E32E32E013
:10100000F32E94EB292E91E0392E8091900290914D
:101010009102A0919202B09193020196A11DB11D7F
:101020008093900290939102A0939202B0939302C6
:101030008FB7F89440909502509096026090970276
:10104000709098028FBF8BE00E94B5005C018CE02D
:101050000E94B5006C0180918C0290918D02A0914C
:101060008E02B0918F020097A105B10509F4AEC0C0
:10107000A3019201281B390B4A0B5B0BCA01B90172
:1010800061323EE473078105910508F49FC028EEA4
:1010900033E040E050E00E94350B5F934F933F9365
:1010A0002F933F922F92FF92EF920E9471040FB6FE
:1010B000F894DEBF0FBECDBF10E000E01F930F938A
:1010C000809185028F93809184028F93DF92CF92DB
:1010D000BF92AF92809193028F93809192028F93EF
:1010E000809191028F93809190028F939F928F9223
:1010F000FF92EF920E9471040FB6F894DEBF0FBE0C
:10110000CDBF0115110509F02EC110928C0210926D
:101110008D0210928E0210928F0260E080913C034B
:101120000E94DE0060E0809142030E94DE00809118
:10113000460390914703892B21F081E792E00E94BA
:101140000C0360E089E00E94DE0060E08AE00E941B
:10115000DE0010938502009384020E9448015B0127
:101160006C0184E6482E512C612C712C0E944801A0
:101170006A197B098C099D09683E734081059105B8
:10118000A8F391E0491A51086108710828EEA20EEF
:1011900023E0B21EC11CD11C41145104610471042E
:1011A00029F761C087E090E09E838D836AE871E053
:1011B000C9010E94600EEDCE86E090E09E838D8393
:1011C00062E971E0C9010E94600EF9CE51E0A516F6
:1011D000B10409F073C061E0C616D10409F0A0C0E3
:1011E0008091880290918902A0918A02B0918B022D
:1011F0000097A105B105B9F1A3019201281B390B94
:101200004A0B5B0BDA01C9012091900230919102E7
:101210004091920250919302843F61E09607A105AC
:10122000B10570F5BF93AF939F938F935F934F93E7
:101230003F932F9389EC91E09F938F93FF92EF92CE
:101240000E947104109288021092890210928A0200
:1012500010928B0210928702109286020FB6F894B9
:10126000DEBF0FBECDBF40E050E0452B09F4CDCE30
:101270000E94D701882309F4C4CE0E940000C1CE89
:10128000809186029091870201E010E00B9711F0A7
:1012900002E010E01F930F935F934F933F932F93C0
:1012A0008EEE91E09F938F93FF92EF920E947104D4
:1012B0000FB6F894DEBF0FBECDBF00CFA114B104AE
:1012C00079F5C114D10449F1809190029091910275
:1012D00020919202309193024092880250928902AA
:1012E00060928A0270928B0241E050E05093870234
:1012F000409386021F924F933F932F939F938F9318
:1013000087E092E09F938F93FF92EF920E94710487
:101310000FB6F894DEBF0FBECDBF0FEF1FEFCECEDE
:10132000C114D104D1F78091900290919102209143
:101330009202309193024092880250928902609208
:101340008A0270928B0242E050E0509387024093F1
:1013500086021F9252E05F933F932F939F938F9348
:1013600084E292E0CFCF0130110571F440928C02FB
:1013700050928D0260928E0270928F0281E090E016
:101380000E94270361E0DECE0230110509F0E1CEB4
:1013900040928C0250928D0260928E0270928F0267
:1013A00082E090E00E94270360E089E00E94DE0076
:1013B00061E0CCCE0E941C0A08F481E00895E89414
:1013C00009C097FB3EF490958095709561957F4F8D
:1013D0008F4F9F4F9923A9F0F92F96E9BB2793953B
:1013E000F695879577956795B795F111F8CFFAF44B
:1013F000BB0F11F460FF1BC06F5F7F4F8F4F9F4F7C
:1014000016C0882311F096E911C0772321F09EE8D9
:10141000872F762F05C0662371F096E8862F70E03F
:1014200060E02AF09A95660F771F881FDAF7880F19
:101430009695879597F90895990F0008550FAA0B6F
:10144000E0E8FEEF16161706E807F907C0F01216D7
:101450001306E407F50798F0621B730B840B950BDA
:1014600039F40A2661F0232B242B252B21F408952F
:101470000A2609F4A140A6958FEF811D811D0895CC
:101480000E94530A0C94C40A0E94B60A38F00E94C3
:10149000BD0A20F0952311F00C94AD0A0C94B30A08
:1014A00011240C94F80A0E94D50A70F3959FC1F399
:1014B000950F50E0551F629FF001729FBB27F00D02
:1014C000B11D639FAA27F00DB11DAA1F649F662757
:1014D000B00DA11D661F829F2227B00DA11D621FA6
:1014E000739FB00DA11D621F839FA00D611D221F60
:1014F000749F3327A00D611D231F849F600D211D44
:10150000822F762F6A2F11249F5750409AF0F1F0C6
:1015100088234AF0EE0FFF1FBB1F661F771F881F2F
:1015200091505040A9F79E3F510580F00C94AD0AB0
:101530000C94F80A5F3FE4F3983ED4F386957795D0
:101540006795B795F795E7959F5FC1F7FE2B880FD5
:10155000911D9695879597F9089597F99F6780E86B
:1015600070E060E008959FEF80EC089500240A94F5
:101570001616170618060906089500240A9412166E
:101580001306140605060895092E0394000C11F4A1
:10159000882352F0BB0F40F4BF2B11F460FF04C04E
:1015A0006F5F7F4F8F4F9F4F089557FD9058440FA7
:1015B000551F59F05F3F71F04795880F97FB991FB2
:1015C00061F09F3F79F0879508951216130614066F
:1015D000551FF2CF4695F1DF08C0161617061806FC
:1015E000991FF1CF86957105610508940895E894D7
:1015F000BB2766277727CB0197F908952F923F9253
:101600004F925F926F927F928F929F92AF92BF9212
:10161000CF92DF92EF92FF920F931F93CF93DF93BE
:10162000CDB7DEB7CA1BDB0B0FB6F894DEBF0FBE1B
:10163000CDBF09942A88398848885F846E847D8468
:101640008C849B84AA84B984C884DF80EE80FD806A
:101650000C811B81AA81B981CE0FD11D0FB6F894E0
:10166000DEBF0FBECDBFED010895A1E21A2EAA1B69
:10167000BB1BFD010DC0AA1FBB1FEE1FFF1FA21742
:10168000B307E407F50720F0A21BB30BE40BF50B3F
:10169000661F771F881F991F1A9469F760957095C8
:1016A000809590959B01AC01BD01CF010895EE0F8F
:1016B000FF1F0590F491E02D09945058BB27AA27ED
:1016C0000E94750B0C94C40A0E94B60A38F00E945E
:1016D000BD0A20F039F49F3F19F426F40C94B30AA4
:1016E0000EF4E095E7FB0C94AD0AE92F0E94D50AB1
:1016F00058F3BA17620773078407950720F079F447
:10170000A6F50C94F70A0EF4E0950B2EBA2FA02D37
:101710000B01B90190010C01CA01A0011124FF279E
:10172000591B99F0593F50F4503E68F11A16F04099
:10173000A22F232F342F4427585FF3CF4695379598
:101740002795A795F0405395C9F77EF41F16BA0B5D
:10175000620B730B840BBAF09150A1F0FF0FBB1F0B
:10176000661F771F881FC2F70EC0BA0F621F731F54
:10177000841F48F4879577956795B795F7959E3FB1
:1017800008F0B0CF9395880F08F09927EE0F979542
:10179000879508950E94DE0B0C94C40A0E94BD0A2E
:1017A00058F00E94B60A40F029F45F3F29F00C94EB
:1017B000AD0A51110C94F80A0C94B30A0E94D50A90
:1017C00068F39923B1F3552391F3951B550BBB2770
:1017D000AA2762177307840738F09F5F5F4F220FB5
:1017E000331F441FAA1FA9F335D00E2E3AF0E0E8AC
:1017F00032D091505040E695001CCAF72BD0FE2FF6
:1018000029D0660F771F881FBB1F26173707480789
:10181000AB07B0E809F0BB0B802DBF01FF27935841
:101820005F4F3AF09E3F510578F00C94AD0A0C944E
:10183000F80A5F3FE4F3983ED4F386957795679571
:10184000B795F7959F5FC9F7880F911D9695879576
:1018500097F90895E1E0660F771F881FBB1F621795
:1018600073078407BA0720F0621B730B840BBA0B53
:10187000EE1F88F7E09508950E94DD0A88F09F57D3
:1018800098F0B92F9927B751B0F0E1F0660F771FA4
:10189000881F991F1AF0BA95C9F714C0B13091F09A
:1018A0000E94F70AB1E008950C94F70A672F782F89
:1018B0008827B85F39F0B93FCCF38695779567955F
:1018C000B395D9F73EF490958095709561957F4FCB
:1018D0008F4F9F4F08950E941C0A08F48FEF0895C0
:1018E0000E941C0A880B990B08950F931F93CF93A6
:1018F000DF938230910510F482E090E0E0915E0386
:10190000F0915F0330E020E0B0E0A0E0309799F480
:101910002115310509F44AC0281B390B2430310543
:10192000D8F58A819B816115710589F1FB0193834B
:101930008283FE0111C040815181028113814817C9
:101940005907E0F04817590799F4109761F012967B
:101950000C93129713961C933296CF01DF91CF917F
:101960001F910F91089500935E0310935F03F4CFCE
:101970002115310551F04217530738F0A901DB0159
:101980009A01BD01DF01F801C1CFEF01F9CF9093BA
:101990005F0380935E03CDCFFE01E20FF31F8193BF
:1019A00091932250310939832883D7CF20915C034A
:1019B00030915D03232B41F420910201309103010A
:1019C00030935D0320935C0320910001309101016D
:1019D0002115310541F42DB73EB7409104015091D6
:1019E0000501241B350BE0915C03F0915D03E217C8
:1019F000F307A0F42E1B3F0B2817390778F0AC0132
:101A00004E5F5F4F2417350748F04E0F5F1F50930E
:101A10005D0340935C03819391939FCFF0E0E0E0FE
:101A20009CCFCF93DF930097E9F0FC0132971382AC
:101A30001282A0915E03B0915F03ED0130E020E0DF
:101A40001097A1F420813181820F931F20915C03B4
:101A500030915D032817390709F061C0F0935D03E9
:101A6000E0935C03DF91CF910895EA01CE17DF0781
:101A7000E8F54A815B819E0141155105B1F7E90105
:101A8000FB83EA8349915991C40FD51FEC17FD07D9
:101A900061F4808191810296840F951FE9019983F9
:101AA0008883828193819B838A83F0E0E0E01296B1
:101AB0008D919C9113970097B9F52D913C911197B9
:101AC000CD010296820F931F20915C0330915D033C
:101AD0002817390739F6309751F510925F031092A5
:101AE0005E03B0935D03A0935C03BCCFD383C2833A
:101AF00040815181840F951FC817D90761F44E5F4B
:101B00005F4F88819981480F591F518340838A8193
:101B10009B81938382832115310509F0B0CFF09327
:101B20005F03E0935E039ECFFD01DC01C0CF138213
:101B30001282D7CFB0E0A0E0E0EAFDE00C94000B09
:101B40008C01009751F4CB010E94750C8C01C801E7
:101B5000CDB7DEB7E0E10C941C0BFC01E60FF71FDC
:101B60009C0122503109E217F30708F49DC0D90106
:101B7000CD91DC911197C617D70798F0C530D105E4
:101B800030F3CE0104978617970708F3C61BD70BCF
:101B90002297C193D1936D937C93CF010E94110D35
:101BA000D6CF5B01AC1ABD0A4C018C0E9D1EA091D4
:101BB0005E03B0915F03512C412CF12CE12C109766
:101BC00031F580915C0390915D038815990509F0CA
:101BD0005CC04616570608F058C0809100019091ED
:101BE0000101009741F48DB79EB7409104015091D7
:101BF0000501841B950BE817F90708F055C0F09311
:101C00005D03E0935C03F90171836083A0CF8D9144
:101C10009C91119712966C90129713967C90139743
:101C2000A815B90559F56C0142E0C40ED11CCA14BF
:101C3000DB0420F1AC014A195B09DA011296159711
:101C400080F06282738251834083D9016D937C93CB
:101C5000E114F10471F0D7011396FC93EE931297FF
:101C600076CF22968C0F9D1FF90191838083F3011B
:101C7000EFCFF0935F03E0935E0369CF48165906F8
:101C800008F42C017D01D3019ACFCB010E94750C81
:101C90007C01009749F0AE01B8010E94570EC801BF
:101CA0000E94110D870153CF10E000E050CFFB01DF
:101CB000DC0102C001900D9241505040D8F70895C8
:101CC000FB01DC0101900D920020E1F70895F894EA
:021CD000FFCF44
:101CD200000060038000000000000D026D019A0107
:101CE2005C02CB01A901BD010D0A0050574D313AEA
:101CF20020002050574D323A20002050574D207678
:101D0200616C75653A200025006E616E00696E6631
:101D1200006F7666006F6666006F6E00306200309C
:101D220078003F0042545337393630204D6F746F7C
:101D32007220436F6E74726F6C004C6962726172D2
:101D4200792076657273696F6E3A00627920526FFC
:101D5200626F6A61782E636F6D00756E6B6E6F775E
:101D62006E004254533739360073657475702063C0
:101D72006F6D706C6574653A206D6F746F723A2086
:101D820025730A006D6F746F722074696D656F75CB
:101D920074203D20256C730A00256C202D20707262
:101DA20065737320746F6F2073686F727420696734
:101DB2006E6F7265202D20256C646D730A00256C90
:101DC200202D20656E6420707265737320646972C1
:101DD200203D2025640A00256C202D207072657339
:101DE20073206677642C206E6577446972203D20EB
:101DF20025640A00256C202D207072657373207291
:101E020065762C206E6577446972203D2025640A30
:101E120000256C202D20667764203D2025642C202F
:101E2200726576203D2025642C20646972203D2055
:101E320025642C206E6577446972203D2025640A52
:101E4200004D6F746F722073746F70706564000060
:00000001FF
