:100000000C9462000C948A000C948A000C948A0070
:100010000C948A000C948A000C948A000C948A0038
:100020000C948A000C948A000C948A000C948A0028
:100030000C948A000C948A000C948A000C948A0018
:100040000C94CC050C948A000C943C060C94160677
:100050000C948A000C948A000C948A000C948A00F8
:100060000C948A000C948A000000000024002700F1
:100070002A0000000000250028002B0000000000DE
:1000800023002600290004040404040404040202DA
:100090000202020203030303030301020408102007
:1000A0004080010204081020010204081020000012
:1000B0000008000201000003040700000000000027
:1000C00000006E0611241FBECFEFD8E0DEBFCDBF0B
:1000D00012E0A0E0B1E0E6E8FCE102C005900D927C
:1000E000AA35B107D9F723E0AAE5B2E001C01D9215
:1000F000A533B207E1F710E0C2E6D0E004C02197D3
:10010000FE010E94310BC136D107C9F70E94FE06DD
:100110000C94410E0C940000833081F028F481305F
:1001200099F08230A9F008958730A9F08830C9F09D
:100130008430B1F4809180008F7D03C08091800075
:100140008F7780938000089584B58F7784BD08955C
:1001500084B58F7DFBCF8091B0008F778093B00006
:1001600008958091B0008F7DF9CFCF93DF93282F32
:1001700030E0F901E255FF4F8491F901E656FF4F57
:10018000D491F901EA57FF4FC491CC23A1F081111A
:100190000E948C00EC2FF0E0EE0FFF1FE458FF4FA1
:1001A000A591B491EC91ED2381E090E009F480E019
:1001B000DF91CF91089580E090E0FACF1F93CF9325
:1001C000DF93282F30E0F901E255FF4F8491F901C8
:1001D000E656FF4FD491F901EA57FF4FC491CC2363
:1001E000A9F0162F81110E948C00EC2FF0E0EE0F89
:1001F000FF1FEE58FF4FA591B4918FB7F894EC9183
:10020000111108C0D095DE23DC938FBFDF91CF9111
:100210001F910895DE2BF8CFCF93DF9390E0FC0180
:10022000E656FF4F24918A579F4FFC018491882303
:10023000C9F090E0880F991FFC01E859FF4FA59184
:10024000B491FC01EE58FF4FC591D49161110DC0DE
:100250009FB7F8948C91209582238C9388812823D2
:1002600028839FBFDF91CF910895623051F49FB7EB
:10027000F8943C91822F809583238C93E8812E2BD8
:10028000EFCF8FB7F894EC912E2B2C938FBFEACF42
:100290003FB7F89480916E0290916F02A091700226
:1002A000B091710226B5A89B05C02F3F19F00196A9
:1002B000A11DB11D3FBFBA2FA92F982F8827BC01C0
:1002C000CD01620F711D811D911D42E0660F771FE8
:1002D000881F991F4A95D1F708958F929F92AF92E8
:1002E000BF92CF92DF92EF92FF920E9448014B01A2
:1002F0005C0184E6C82ED12CE12CF12C0E9448012F
:10030000681979098A099B09683E7340810591053E
:10031000A8F321E0C21AD108E108F10888EE880E9E
:1003200083E0981EA11CB11CC114D104E104F104A6
:1003300029F7FF90EF90DF90CF90BF90AF909F9004
:100340008F900895AF92BF92CF92DF92EF92FF927B
:100350000F931F93CF93DF936C017B018B01040FED
:10036000151FEB015E01AE18BF08C017D10759F089
:100370006991D601ED91FC910190F081E02DC601CB
:100380000995892B79F7C501DF91CF911F910F91C5
:10039000FF90EF90DF90CF90BF90AF900895FC0159
:1003A000538D448D252F30E0842F90E0821B930BDA
:1003B000541710F0CF96089501970895FC01918D80
:1003C000828D981761F0A28DAE0FBF2FB11D5D9683
:1003D0008C91928D9F5F9F73928F90E008958FEF25
:1003E0009FEF0895FC01918D828D981731F0828DD9
:1003F000E80FF11D858D90E008958FEF9FEF089530
:10040000FC01918D228D892F90E0805C9F4F821B93
:1004100091098F739927089582E792E00E94000264
:1004200021E0892B09F420E0822F089580E090E0FC
:10043000892B29F00E940C0281110C940000089570
:10044000FC01A48DA80FB92FB11DA35ABF4F2C9149
:10045000848D90E001968F739927848FA689B78940
:100460002C93A089B1898C91837080648C93938D37
:10047000848D981306C00288F389E02D80818F7DDA
:1004800080830895EF92FF920F931F93CF93DF9392
:10049000EC0181E0888F9B8D8C8D98131AC0E889C0
:1004A000F989808185FF15C09FB7F894EE89FF898F
:1004B0006083E889F98980818370806480839FBF2D
:1004C00081E090E0DF91CF911F910F91FF90EF902D
:1004D0000895F62E0B8D10E00F5F1F4F0F7311273D
:1004E000E02E8C8D8E110CC00FB607FCFACFE88978
:1004F000F989808185FFF5CFCE010E942002F1CFDE
:10050000EB8DEC0FFD2FF11DE35AFF4FF0829FB7EB
:10051000F8940B8FEA89FB8980818062CFCF0C949D
:100520004202CF93DF93EC01888D8823B9F0AA892A
:10053000BB89E889F9898C9185FD03C0808186FD9E
:100540000DC00FB607FCF7CF8C9185FFF2CF8081ED
:1005500085FFEDCFCE010E942002E9CFDF91CF9140
:100560000895FB0101900020E9F73197AF01461B88
:10057000570B0C94A2018F929F92AF92BF92EF9271
:10058000FF920F931F93CF93DF93CDB7DEB7A19761
:100590000FB6F894DEBF0FBECDBF7C01FA01CB01D0
:1005A00019A2223008F42AE08E010F5D1F4F822E1F
:1005B000912CB12CA12CBF01A50194010E940F0B1D
:1005C000F901CA016A300CF5605DD8016E938D01A6
:1005D000232B242B252B79F790E080E0109721F036
:1005E000BD01C7010E94B102A1960FB6F894DEBF0B
:1005F0000FBECDBFDF91CF911F910F91FF90EF9074
:10060000BF90AF909F908F900895695CDECFCF929E
:10061000DF92EF92FF920F931F93CF93DF936B01C3
:10062000770FEE08FF084A305105F1F42AE0F7FE93
:100630001CC0EC016DE20E948F028C0144275527FB
:10064000BA014C195D096E097F092AE0CE010E94AA
:10065000BB02800F911FDF91CF911F910F91FF90EF
:10066000EF90DF90CF900895242FB701A601DF917E
:10067000CF911F910F91FF90EF90DF90CF900C944E
:10068000BB02CF93DF93BC0182E792E00E94B102EC
:10069000EC0168E171E082E792E00E94B1028C0F08
:1006A0009D1FDF91CF9108956115710511F00C9494
:1006B000B10290E080E008950F931F93CF93DF93F2
:1006C0008C0161E080910F030E94DE0061E0809167
:1006D00015030E94DE00C0911703D091180390917A
:1006E0001103809112030130110509F047C01C2F3E
:1006F0000D2FC92FD82F80911B0390911C03892B9C
:1007000089F160E0812F0E94DE006BE171E082E7F9
:1007100092E00E9454034AE050E0612F702F82E77C
:1007200092E00E94070362E271E082E792E00E9499
:1007300054034AE050E0BE0182E792E00E940703C2
:100740006AE271E082E792E00E9454034AE050E0DE
:1007500064E670E082E792E00E94070387E391E09D
:100760000E94410361E08C2F0E940C0161E08C2FFC
:10077000DF91CF911F910F910C94DE008C01BBCFC4
:100780002F923F924F925F926F927F928F929F92A1
:10079000AF92BF92CF92DF92EF92FF921F93CF93CF
:1007A000DF93EC016A017B01722EAB019601CB0154
:1007B000B6010E944A0C69E371E0811126C046012E
:1007C0005701E894B7F82FEF3FEF4FE75FE7C50118
:1007D000B4010E944A0C81110CC02FEF3FEF4FE78C
:1007E0005FE7C501B4010E94B4096DE371E018161A
:1007F00064F02FEF3FEF4FE75FE4C701B6010E94BF
:10080000450C1816B4F461E471E0CE01DF91CF918C
:100810001F91FF90EF90DF90CF90BF90AF909F908F
:100820008F907F906F905F904F903F902F900C949F
:10083000B1022FEF3FEF4FE75FECC701B6010E9417
:10084000B40987FDE0CF20E030E0A901C701B6017F
:100850000E94B409312C212C87FF09C06DE2CE0122
:100860000E948F021C01F7FAF094F7F8F09410E060
:1008700060E070E080E09FE3711641F020E030E03E
:1008800040E251E40E94A40B1F5FF6CFA70196013E
:100890000E94380B2B013C010E94160C4B015C019D
:1008A0002AE0BC01A401CE010E94BB027C01E20C43
:1008B000F31C1123C1F1C501B4010E94B9099B01C8
:1008C000AC01C301B2010E94370B4B015C016EE227
:1008D000CE010E948F02E80EF91E115020F120E097
:1008E00030E040E251E4C501B4010E941A0A2B0134
:1008F0003C010E94160C4B01B12CA12C2AE0B50141
:10090000A401CE010E94BB02E80EF91EC501B4018C
:100910000E94B9099B01AC01C301B2010E94370BCF
:100920004B015C01DACFC701DF91CF911F91FF909E
:10093000EF90DF90CF90BF90AF909F908F907F907F
:100940006F905F904F903F902F9008958F929F925D
:10095000AF92BF92CF92DF92EF92FF920F931F93CD
:10096000CF93DF93CDB7DEB7C988DA888E010D5EED
:100970001F4FF12CE12CF601EE0DFF1D6081662367
:1009800009F4D5C0653209F0CDC081818E3219F4E9
:100990008FEFE81AF80AF601EE0DFF1D218180EDB8
:1009A000820F8A3018F5EFEFEE1AFE0A022E000CC5
:1009B000330B20533109FFEFEF1AFF0AF601EE0D5A
:1009C000FF1D8081843689F144F5883509F499C08A
:1009D00084F4853209F4A5C0823409F44AC062E582
:1009E00071E082E792E00E94540313C022E030E0FD
:1009F000E2CF823609F443C0833689F75801F2E02A
:100A0000AF0EB11CF801608182E792E00E948F0274
:100A10008501FFEFEF1AFF0AAECF8C3609F44BC009
:100A200074F48636D1F18936D1F65801F2E0AF0E72
:100A3000B11CF801608171814AE050E029C0833720
:100A400009F457C0883709F462C08F3641F658015F
:100A5000F2E0AF0EB11CF8018081918165E471E094
:100A6000892B11F069E471E082E792E00E9454035F
:100A7000CFCF6CE471E082E792E00E94540358010A
:100A800082E0A80EB11CF8016081718142E050E063
:100A900082E792E00E940703BBCF5801F4E0AF0E5B
:100AA000B11CF801408151816281738182E792E03B
:100AB0000E94C003ADCFF80180809180A280B380F6
:100AC0000C5F1F4F2AE0B501A401B7FE0DC06DE217
:100AD00082E792E00E948F0244275527BA01481905
:100AE00059096A097B092AE082E792E00E94BB0269
:100AF00090CF5801F2E0AF0EB11CF8016081718116
:100B0000B3CF6FE471E082E792E00E945403580192
:100B1000F2E0AF0EB11CF8016081718140E150E05C
:100B2000B7CF65E282E792E00E948F0272CFDF9139
:100B3000CF911F910F91FF90EF90DF90CF90BF90DA
:100B4000AF909F908F9008950F931F93CF93DF9353
:100B5000EC0188819981009759F02A813B81261701
:100B6000370730F081E0DF91CF911F910F91089509
:100B70008B016F5F7F4F0E94740D009759F099832E
:100B800088831B830A832C813D81232B59F7FC0129
:100B90001082E8CF80E0E7CF1F920F920FB60F923E
:100BA00011242F933F938F939F93AF93BF93809183
:100BB0006A0290916B02A0916C02B0916D0230912B
:100BC000690223E0230F2D3758F50196A11DB11DB1
:100BD0002093690280936A0290936B02A0936C0247
:100BE000B0936D0280916E0290916F02A09170029D
:100BF000B09171020196A11DB11D80936E02909378
:100C00006F02A0937002B0937102BF91AF919F9158
:100C10008F913F912F910F900FBE0F901F901895BD
:100C200026E8230F0296A11DB11DD2CF1F920F926D
:100C30000FB60F9211242F933F934F935F936F93AF
:100C40007F938F939F93AF93BF93EF93FF9382E72D
:100C500092E00E942002FF91EF91BF91AF919F918E
:100C60008F917F916F915F914F913F912F910F9055
:100C70000FBE0F901F9018951F920F920FB60F92F4
:100C800011242F938F939F93EF93FF93E091820210
:100C9000F09183028081E0918802F091890282FDC7
:100CA0001BC0908180918B028F5F8F7320918C028B
:100CB000821741F0E0918B02F0E0EE58FD4F958FE6
:100CC00080938B02FF91EF919F918F912F910F90C5
:100CD0000FBE0F901F9018958081F4CFCF93DF93B4
:100CE000E2E7F2E01382128288EE93E0A0E0B0E047
:100CF00084839583A683B7838AE091E09183808380
:100D000085EC90E09587848784EC90E097878687D0
:100D100080EC90E0918B808B81EC90E0938B828BC8
:100D200082EC90E0958B848B86EC90E0978B868BA1
:100D3000118E128E138E148EC5E2D3E086E0888366
:100D400087E0898388E08A8384E68B83198681E043
:100D500088871C821D821E821F828FEF9FEF9B87D8
:100D60008A8761E086E00E940C0161E089810E942F
:100D70000C0161E08A810E940C01C1E2D3E019827A
:100D8000188283E08A8382E08B8361E083E00E94A3
:100D90000C0161E08B810E940C0160E08A810E945D
:100DA000DE0060E08B810E94DE00EFE0F3E080E097
:100DB00090E0A0E8BFE386879787A08BB18B84E0A3
:100DC00090E09183808385E090E09383828383E049
:100DD00090E09583848387E090E09783868386E024
:100DE00090E09187808788E090E09387828781E018
:100DF00090E095878487DF91CF910895CF93DF931B
:100E000000D000D000D0CDB7DEB7789484B5826032
:100E100084BD84B5816084BD85B5826085BD85B59E
:100E2000816085BD80916E00816080936E0010921C
:100E30008100809181008260809381008091810097
:100E40008160809381008091800081608093800028
:100E50008091B10084608093B1008091B000816086
:100E60008093B00080917A00846080937A008091B2
:100E70007A00826080937A0080917A00816080930A
:100E80007A0080917A00806880937A001092C10085
:100E90001092650210926602109267021092680228
:100EA00010925E0210925F02109260021092610234
:100EB000E0918202F091830282E08083E0917E02E1
:100EC000F0917F021082E0918002F09181028FEC1C
:100ED000808310928A02E0918602F091870286E078
:100EE0008083E0918402F09185028081806180831B
:100EF000E0918402F0918502808188608083E09196
:100F00008402F0918502808180688083E091840270
:100F1000F091850280818F7D808361E089E00E946D
:100F20000C0161E08AE00E940C0162E08BE00E940B
:100F30000C0162E08CE00E940C0161E080910F03E3
:100F40000E940C0161E0809111030E940C0160E09D
:100F5000809113030E940C0161E0809115030E94AF
:100F60000C0161E0809117030E940C0160E0809108
:100F700019030E940C0180911B0390911C03892B83
:100F800009F184E591E00E9441036AE671E082E79D
:100F900092E00E94540340911D0350911E03609102
:100FA0001F037091200322E082E792E00E94C003B9
:100FB00068E171E082E792E00E94B1028BE791E084
:100FC0000E9441031A8219821C821B821E821D828A
:100FD00067E070E0CE0101960E94A40529813A8164
:100FE0008111A9C02115310519F0C9010E94EB0C2E
:100FF0001A8219821E821D821C821B8266E070E0AA
:10100000CE0101960E94A40529813A8181119DC0DB
:101010002115310519F0C9010E94EB0C1A821982C1
:101020001E821D821C821B828A818F9389818F93ED
:1010300089E991E09F938F9382E792E09F938F934A
:101040000E94A60489819A810F900F900F900F90B3
:101050000F900F90009711F00E94EB0C22E7E22E08
:1010600022E0F22E9DEC292E91E0392E84EB882E81
:1010700081E0982E8091650290916602A0916702AE
:10108000B09168020196A11DB11D809365029093F5
:101090006602A0936702B09368028FB7F8944090FD
:1010A0006A0250906B0260906C0270906D028FBF6C
:1010B0008BE00E94B5005C018CE00E94B5006C01E1
:1010C00080916402882309F416C1AA94AB2809F020
:1010D000C1C0CA94CD2809F0BDC0809163028F932E
:1010E000809162028F93809168028F938091670252
:1010F0008F93809166028F93809165028F939F9268
:101100008F92FF92EF920E94A604109264020E94B6
:101110006D010FB6F894DEBF0FBECDBF20E030E00A
:10112000232B09F4A7CF0E940C02882309F49ECF39
:101130000E94000097CF87E090E09E838D836AE84D
:1011400071E0C9010E943A0E59CF86E090E09E837B
:101150008D8362E971E0C9010E943A0E65CFA30157
:101160009201281B390B4A0B5B0BCA01B901613193
:1011700037E273078105910508F4CAC028EE33E011
:1011800040E050E00E940F0B5F934F933F932F93EB
:101190003F922F92FF92EF920E94A6040FB6F8940E
:1011A000DEBF0FBECDBF10E000E0809162029091E3
:1011B00063028017910709F4B1CF1F930F939F9398
:1011C0008F93DF92CF92BF92AF92809168028F93FC
:1011D000809167028F93809166028F938091650260
:1011E0008F932CE132E03F932F93FF92EF920E9476
:1011F000A6040FB6F894DEBF0FBECDBF01151105D2
:1012000009F05EC010925E0210925F0210926002BE
:101210001092610260E0809111030E94DE0060E0A4
:10122000809117030E94DE0080911B0390911C03A4
:10123000892B21F08CE492E00E94410360E089E078
:101240000E94DE0060E08AE00E94DE0010936302EC
:10125000009362020E946D0161CFA114B10409F0F4
:1012600061C0C114D10409F459CF81E080936402B4
:1012700091E080E0209162023091630221303105DB
:1012800009F490E0092F182F8F939F9380916802A3
:101290008F93809167028F93809166028F938091E4
:1012A00065028F9322EE31E03F932F93FF92EF92EE
:1012B0000E94A6040FB6F894DEBF0FBECDBF75CF57
:1012C00040925E0250925F026092600270926102F0
:1012D0000130110531F481E090E00E945C0361E08F
:1012E000AECF82E090E00E945C0360E089E00E9463
:1012F000DE0061E0A8CF80915E0290915F02A09134
:101300006002B09161020097A105B10509F027CFF5
:1013100051E0A516B10409F0A0CF81E0C816D104B0
:1013200009F4FCCEC114D10409F0F8CE81E0809319
:101330006402809162029091630202E010E00297E1
:1013400011F410E000E01F930F93809168028F93D7
:10135000809167028F93809166028F9380916502DE
:101360008F932FEF31E0A0CF0E94F60908F481E0BF
:101370000895E89409C097FB3EF490958095709588
:1013800061957F4F8F4F9F4F9923A9F0F92F96E9D1
:10139000BB279395F695879577956795B795F11146
:1013A000F8CFFAF4BB0F11F460FF1BC06F5F7F4FE3
:1013B0008F4F9F4F16C0882311F096E911C07723F5
:1013C00021F09EE8872F762F05C0662371F096E8FE
:1013D000862F70E060E02AF09A95660F771F881FCD
:1013E000DAF7880F9695879597F90895990F000871
:1013F000550FAA0BE0E8FEEF16161706E807F907E7
:10140000C0F012161306E407F50798F0621B730B81
:10141000840B950B39F40A2661F0232B242B252B02
:1014200021F408950A2609F4A140A6958FEF811DA5
:10143000811D08950E942D0A0C949E0A0E94900A14
:1014400038F00E94970A20F0952311F00C94870A37
:101450000C948D0A11240C94D20A0E94AF0A70F3E6
:10146000959FC1F3950F50E0551F629FF001729F49
:10147000BB27F00DB11D639FAA27F00DB11DAA1F58
:10148000649F6627B00DA11D661F829F2227B00DA5
:10149000A11D621F739FB00DA11D621F839FA00D30
:1014A000611D221F749F3327A00D611D231F849F80
:1014B000600D211D822F762F6A2F11249F575040D7
:1014C0009AF0F1F088234AF0EE0FFF1FBB1F661F52
:1014D000771F881F91505040A9F79E3F510580F01B
:1014E0000C94870A0C94D20A5F3FE4F3983ED4F33D
:1014F000869577956795B795F795E7959F5FC1F7BF
:10150000FE2B880F911D9695879597F9089597F969
:101510009F6780E870E060E008959FEF80EC089599
:1015200000240A94161617061806090608950024C2
:101530000A9412161306140605060895092E03943C
:10154000000C11F4882352F0BB0F40F4BF2B11F4B0
:1015500060FF04C06F5F7F4F8F4F9F4F089557FD0F
:101560009058440F551F59F05F3F71F04795880F11
:1015700097FB991F61F09F3F79F0879508951216A8
:1015800013061406551FF2CF4695F1DF08C0161654
:1015900017061806991FF1CF869571056105089405
:1015A0000895E894BB2766277727CB0197F908951C
:1015B0002F923F924F925F926F927F928F929F9263
:1015C000AF92BF92CF92DF92EF92FF920F931F9351
:1015D000CF93DF93CDB7DEB7CA1BDB0B0FB6F89402
:1015E000DEBF0FBECDBF09942A88398848885F8442
:1015F0006E847D848C849B84AA84B984C884DF80B3
:10160000EE80FD800C811B81AA81B981CE0FD11D96
:101610000FB6F894DEBF0FBECDBFED010895A1E275
:101620001A2EAA1BBB1BFD010DC0AA1FBB1FEE1F5C
:10163000FF1FA217B307E407F50720F0A21BB30BA7
:10164000E40BF50B661F771F881F991F1A9469F723
:1016500060957095809590959B01AC01BD01CF017F
:101660000895EE0FFF1F0590F491E02D0994505856
:10167000BB27AA270E944F0B0C949E0A0E94900A37
:1016800038F00E94970A20F039F49F3F19F426F4AD
:101690000C948D0A0EF4E095E7FB0C94870AE92F71
:1016A0000E94AF0A58F3BA176207730784079507B9
:1016B00020F079F4A6F50C94D10A0EF4E0950B2EE7
:1016C000BA2FA02D0B01B90190010C01CA01A00194
:1016D0001124FF27591B99F0593F50F4503E68F1EF
:1016E0001A16F040A22F232F342F4427585FF3CF30
:1016F000469537952795A795F0405395C9F77EF401
:101700001F16BA0B620B730B840BBAF09150A1F049
:10171000FF0FBB1F661F771F881FC2F70EC0BA0FCF
:10172000621F731F841F48F4879577956795B79557
:10173000F7959E3F08F0B0CF9395880F08F0992752
:10174000EE0F9795879508950E94B80B0C949E0A0A
:101750000E94970A58F00E94900A40F029F45F3FD7
:1017600029F00C94870A51110C94D20A0C948D0A1A
:101770000E94AF0A68F39923B1F3552391F3951BA7
:10178000550BBB27AA2762177307840738F09F5FA2
:101790005F4F220F331F441FAA1FA9F335D00E2E0F
:1017A0003AF0E0E832D091505040E695001CCAF77C
:1017B0002BD0FE2F29D0660F771F881FBB1F26173F
:1017C00037074807AB07B0E809F0BB0B802DBF0116
:1017D000FF2793585F4F3AF09E3F510578F00C94E5
:1017E000870A0C94D20A5F3FE4F3983ED4F38695BF
:1017F00077956795B795F7959F5FC9F7880F911D06
:101800009695879597F90895E1E0660F771F881FF1
:10181000BB1F621773078407BA0720F0621B730BA4
:10182000840BBA0BEE1F88F7E09508950E94B70A63
:1018300088F09F5798F0B92F9927B751B0F0E1F091
:10184000660F771F881F991F1AF0BA95C9F714C041
:10185000B13091F00E94D10AB1E008950C94D10A00
:10186000672F782F8827B85F39F0B93FCCF386957A
:1018700077956795B395D9F73EF4909580957095D7
:1018800061957F4F8F4F9F4F08950E94F60908F48E
:101890008FEF08950E94F609880B990B08950F9316
:1018A0001F93CF93DF938230910510F482E090E094
:1018B000E0913303F091340330E020E0B0E0A0E0A9
:1018C000309799F42115310509F44AC0281B390BCA
:1018D00024303105D8F58A819B816115710589F124
:1018E000FB0193838283FE0111C0408151810281FB
:1018F000138148175907E0F04817590799F41097D2
:1019000061F012960C93129713961C933296CF01A6
:10191000DF91CF911F910F9108950093330310939E
:101920003403F4CF2115310551F04217530738F035
:10193000A901DB019A01BD01DF01F801C1CFEF016F
:10194000F9CF9093340380933303CDCFFE01E20FA0
:10195000F31F819391932250310939832883D7CF84
:101960002091310330913203232B41F42091020165
:101970003091030130933203209331032091000111
:10198000309101012115310541F42DB73EB7409149
:10199000040150910501241B350BE0913103F091B6
:1019A0003203E217F307A0F42E1B3F0B2817390769
:1019B00078F0AC014E5F5F4F2417350748F04E0FAB
:1019C0005F1F5093320340933103819391939FCFD4
:1019D000F0E0E0E09CCFCF93DF930097E9F0FC01CB
:1019E000329713821282A0913303B0913403ED0138
:1019F00030E020E01097A1F420813181820F931F05
:101A000020913103309132032817390709F061C062
:101A1000F0933203E0933103DF91CF910895EA010F
:101A2000CE17DF07E8F54A815B819E01411551051C
:101A3000B1F7E901FB83EA8349915991C40FD51F9E
:101A4000EC17FD0761F4808191810296840F951F48
:101A5000E90199838883828193819B838A83F0E063
:101A6000E0E012968D919C9113970097B9F52D9116
:101A70003C911197CD010296820F931F2091310363
:101A8000309132032817390739F6309751F5109203
:101A9000340310923303B0933203A0933103BCCFCD
:101AA000D383C28340815181840F951FC817D90702
:101AB00061F44E5F5F4F88819981480F591F5183B0
:101AC00040838A819B81938382832115310509F0AC
:101AD000B0CFF0933403E09333039ECFFD01DC01DC
:101AE000C0CF13821282D7CFB0E0A0E0EAE7FDE0DA
:101AF0000C94DA0A8C01009751F4CB010E944F0C30
:101B00008C01C801CDB7DEB7E0E10C94F60AFC0108
:101B1000E60FF71F9C0122503109E217F30708F482
:101B20009DC0D901CD91DC911197C617D70798F0C8
:101B3000C530D10530F3CE0104978617970708F317
:101B4000C61BD70B2297C193D1936D937C93CF0182
:101B50000E94EB0CD6CF5B01AC1ABD0A4C018C0E77
:101B60009D1EA0913303B0913403512C412CF12CD4
:101B7000E12C109731F58091310390913203881553
:101B8000990509F05CC04616570608F058C08091C8
:101B9000000190910101009741F48DB79EB74091EB
:101BA000040150910501841B950BE817F90708F013
:101BB00055C0F0933203E0933103F90171836083E0
:101BC000A0CF8D919C91119712966C9012971396BD
:101BD0007C901397A815B90559F56C0142E0C40E25
:101BE000D11CCA14DB0420F1AC014A195B09DA01EB
:101BF0001296159780F06282738251834083D901D7
:101C00006D937C93E114F10471F0D7011396FC936A
:101C1000EE93129776CF22968C0F9D1FF901918338
:101C20008083F301EFCFF0933403E093330369CF64
:101C30004816590608F42C017D01D3019ACFCB0137
:101C40000E944F0C7C01009749F0AE01B8010E9440
:101C5000310EC8010E94EB0C870153CF10E000E069
:101C600050CFFB01DC0102C001900D924150504069
:101C7000D8F70895FB01DC0101900D920020E1F7F7
:061C80000895F894FFCF67
:101C8600000035038000000000004202A201CF01DF
:101C960091020002DE01F2010D0A0050574D313A61
:101CA60020002050574D323A20002050574D2076C4
:101CB600616C75653A200025006E616E00696E667E
:101CC600006F7666006F6666006F6E0030620030E9
:101CD60078003F0042545337393630204D6F746FC9
:101CE6007220436F6E74726F6C004C69627261721F
:101CF600792076657273696F6E3A00627920526F49
:101D0600626F6A61782E636F6D00756E6B6E6F77AA
:101D16006E0042545337393600736574757020630C
:101D26006F6D706C6574653A206D6F746F723A20D2
:101D360025730A00256C202D20656E64207072655F
:101D4600737320646972203D2025640A006D6F74E8
:101D56006F722074696D656F7574203D20256C73F4
:101D66000A00256C202D20707265737320667764D7
:101D76002C206E6577446972203D2025640A002573
:101D86006C202D207072657373207265762C206E20
:101D96006577446972203D2025640A00256C202D54
:101DA60020667764203D2025642C20726576203DD0
:101DB6002025642C20646972203D2025642C206E29
:101DC6006577446972203D2025640A004D6F746F63
:0A1DD600722073746F707065640072
:00000001FF
