:100000000C9462000C948A000C948A000C948A0070
:100010000C948A000C948A000C948A000C948A0038
:100020000C948A000C948A000C948A000C948A0028
:100030000C948A000C948A000C948A000C948A0018
:100040000C94A4050C948A000C9414060C94EE05F0
:100050000C948A000C948A000C948A000C948A00F8
:100060000C948A000C948A000000000024002700F1
:100070002A0000000000250028002B0000000000DE
:1000800023002600290004040404040404040202DA
:100090000202020203030303030301020408102007
:1000A0004080010204081020010204081020000012
:1000B0000008000201000003040700000000000027
:1000C0000000460611241FBECFEFD8E0DEBFCDBF33
:1000D00012E0A0E0B1E0E4E8F6E102C005900D9284
:1000E000A833B107D9F723E0A8E3B2E001C01D921D
:1000F000AB30B207E1F710E0C2E6D0E004C02197D0
:10010000FE010E94FE08C136D107C9F70E94D6063B
:100110000C94400B0C940000833081F028F4813063
:1001200099F08230A9F008958730A9F08830C9F09D
:100130008430B1F4809180008F7D03C08091800075
:100140008F7780938000089584B58F7784BD08955C
:1001500084B58F7DFBCF8091B0008F778093B00006
:1001600008958091B0008F7DF9CFCF93DF93282F32
:1001700030E0F901E255FF4F8491F901E656FF4F57
:10018000D491F901EA57FF4FC491CC23A1F081111A
:100190000E948C00EC2FF0E0EE0FFF1FE458FF4FA1
:1001A000A591B491EC91ED2381E090E009F480E019
:1001B000DF91CF91089580E090E0FACF1F93CF9325
:1001C000DF93282F30E0F901E255FF4F8491F901C8
:1001D000E656FF4FD491F901EA57FF4FC491CC2363
:1001E000A9F0162F81110E948C00EC2FF0E0EE0F89
:1001F000FF1FEE58FF4FA591B4918FB7F894EC9183
:10020000111108C0D095DE23DC938FBFDF91CF9111
:100210001F910895DE2BF8CFCF93DF9390E0FC0180
:10022000E656FF4F24918A579F4FFC018491882303
:10023000C9F090E0880F991FFC01E859FF4FA59184
:10024000B491FC01EE58FF4FC591D49161110DC0DE
:100250009FB7F8948C91209582238C9388812823D2
:1002600028839FBFDF91CF910895623051F49FB7EB
:10027000F8943C91822F809583238C93E8812E2BD8
:10028000EFCF8FB7F894EC912E2B2C938FBFEACF42
:100290003FB7F8948091480290914902A0914A0298
:1002A000B0914B0226B5A89B05C02F3F19F00196CF
:1002B000A11DB11D3FBFBA2FA92F982F8827BC01C0
:1002C000CD01620F711D811D911D42E0660F771FE8
:1002D000881F991F4A95D1F708958F929F92AF92E8
:1002E000BF92CF92DF92EF92FF920E9448014B01A2
:1002F0005C0184E6C82ED12CE12CF12C0E9448012F
:10030000681979098A099B09683E7340810591053E
:10031000A8F321E0C21AD108E108F10888EE880E9E
:1003200083E0981EA11CB11CC114D104E104F104A6
:1003300029F7FF90EF90DF90CF90BF90AF909F9004
:100340008F900895AF92BF92CF92DF92EF92FF927B
:100350000F931F93CF93DF936C017B018B01040FED
:10036000151FEB015E01AE18BF08C017D10759F089
:100370006991D601ED91FC910190F081E02DC601CB
:100380000995892B79F7C501DF91CF911F910F91C5
:10039000FF90EF90DF90CF90BF90AF900895FC0159
:1003A000538D448D252F30E0842F90E0821B930BDA
:1003B000541710F0CF96089501970895FC01918D80
:1003C000828D981761F0A28DAE0FBF2FB11D5D9683
:1003D0008C91928D9F5F9F73928F90E008958FEF25
:1003E0009FEF0895FC01918D828D981731F0828DD9
:1003F000E80FF11D858D90E008958FEF9FEF089530
:10040000FC01918D228D892F90E0805C9F4F821B93
:1004100091098F73992708958CE492E00E9400025D
:1004200021E0892B09F420E0822F089580E090E0FC
:10043000892B29F00E940C0281110C940000089570
:10044000FC01A48DA80FB92FB11DA35ABF4F2C9149
:10045000848D90E001968F739927848FA689B78940
:100460002C93A089B1898C91837080648C93938D37
:10047000848D981306C00288F389E02D80818F7DDA
:1004800080830895EF92FF920F931F93CF93DF9392
:10049000EC0181E0888F9B8D8C8D98131AC0E889C0
:1004A000F989808185FF15C09FB7F894EE89FF898F
:1004B0006083E889F98980818370806480839FBF2D
:1004C00081E090E0DF91CF911F910F91FF90EF902D
:1004D0000895F62E0B8D10E00F5F1F4F0F7311273D
:1004E000E02E8C8D8E110CC00FB607FCFACFE88978
:1004F000F989808185FFF5CFCE010E942002F1CFDE
:10050000EB8DEC0FFD2FF11DE35AFF4FF0829FB7EB
:10051000F8940B8FEA89FB8980818062CFCF0C949D
:100520004202CF93DF93EC01888D8823B9F0AA892A
:10053000BB89E889F9898C9185FD03C0808186FD9E
:100540000DC00FB607FCF7CF8C9185FFF2CF8081ED
:1005500085FFEDCFCE010E942002E9CFDF91CF9140
:100560000895FB0101900020E9F73197AF01461B88
:10057000570B0C94A2018F929F92AF92BF92EF9271
:10058000FF920F931F93CF93DF93CDB7DEB7A19761
:100590000FB6F894DEBF0FBECDBF7C01FA01CB01D0
:1005A00019A2223008F42AE08E010F5D1F4F822E1F
:1005B000912CB12CA12CBF01A50194010E94DC0853
:1005C000F901CA016A300CF5605DD8016E938D01A6
:1005D000232B242B252B79F790E080E0109721F036
:1005E000BD01C7010E94B102A1960FB6F894DEBF0B
:1005F0000FBECDBFDF91CF911F910F91FF90EF9074
:10060000BF90AF909F908F900895695CDECFCF929E
:10061000DF92EF92FF920F931F93CF93DF936B01C3
:10062000770FEE08FF084A305105F1F42AE0F7FE93
:100630001CC0EC016DE20E948F028C0144275527FB
:10064000BA014C195D096E097F092AE0CE010E94AA
:10065000BB02800F911FDF91CF911F910F91FF90EF
:10066000EF90DF90CF900895242FB701A601DF917E
:10067000CF911F910F91FF90EF90DF90CF900C944E
:10068000BB02CF93DF93BC018CE492E00E94B102E5
:10069000EC0162E171E08CE492E00E94B1028C0F07
:1006A0009D1FDF91CF9108956115710511F00C9494
:1006B000B10290E080E008950F931F93CF93DF93F2
:1006C0008C0161E08091E9020E94DE0061E080918E
:1006D000EF020E94DE00C091F102D091F2029091EF
:1006E000EB028091EC020130110509F047C01C2F8C
:1006F0000D2FC92FD82F8091F5029091F602892BEA
:1007000089F160E0812F0E94DE0065E171E08CE4F8
:1007100092E00E9454034AE050E0612F702F8CE475
:1007200092E00E9407036CE171E08CE492E00E9489
:1007300054034AE050E0BE018CE492E00E940703BB
:1007400064E271E08CE492E00E9454034AE050E0DD
:1007500064E670E08CE492E00E94070381E391E09C
:100760000E94410361E08C2F0E940C0161E08C2FFC
:10077000DF91CF911F910F910C94DE008C01BBCFC4
:100780002F923F924F925F926F927F928F929F92A1
:10079000AF92BF92CF92DF92EF92FF921F93CF93CF
:1007A000DF93EC016A017B01722EAB019601CB0154
:1007B000B6010E943B0B63E371E0811126C0460144
:1007C0005701E894B7F82FEF3FEF4FE75FE7C50118
:1007D000B4010E943B0B81110CC02FEF3FEF4FE79C
:1007E0005FE7C501B4010E94710967E371E0181663
:1007F00064F02FEF3FEF4FE75FE4C701B6010E94BF
:10080000C90A1816B4F46BE371E0CE01DF91CF9101
:100810001F91FF90EF90DF90CF90BF90AF909F908F
:100820008F907F906F905F904F903F902F900C949F
:10083000B1022FEF3FEF4FE75FECC701B6010E9417
:10084000710987FDE0CF20E030E0A901C701B601C2
:100850000E947109312C212C87FF09C06DE2CE0165
:100860000E948F021C01F7FAF094F7F8F09410E060
:1008700060E070E080E09FE3711641F020E030E03E
:1008800040E251E40E9476091F5FF6CFA70196016E
:100890000E9405092B013C010E94E8094B015C0103
:1008A0002AE0BC01A401CE010E94BB027C01E20C43
:1008B000F31C1123C1F1C501B4010E94170A9B0169
:1008C000AC01C301B2010E9404094B015C016EE25C
:1008D000CE010E948F02E80EF91E115020F120E097
:1008E00030E040E251E4C501B4010E94CE0A2B0180
:1008F0003C010E94E8094B01B12CA12C2AE0B50172
:10090000A401CE010E94BB02E80EF91EC501B4018C
:100910000E94170A9B01AC01C301B2010E940409A5
:100920004B015C01DACFC701DF91CF911F91FF909E
:10093000EF90DF90CF90BF90AF909F908F907F907F
:100940006F905F904F903F902F9008958F929F925D
:10095000AF92BF92CF92DF92EF92FF920F931F93CD
:10096000CF93DF93CDB7DEB7C988DA888E010D5EED
:100970001F4FF12CE12CF601EE0DFF1D6081662367
:1009800009F4D5C0653209F0CDC081818E3219F4E9
:100990008FEFE81AF80AF601EE0DFF1D218180EDB8
:1009A000820F8A3018F5EFEFEE1AFE0A022E000CC5
:1009B000330B20533109FFEFEF1AFF0AF601EE0D5A
:1009C000FF1D8081843689F144F5883509F499C08A
:1009D00084F4853209F4A5C0823409F44AC06CE479
:1009E00071E08CE492E00E94540313C022E030E0F6
:1009F000E2CF823609F443C0833689F75801F2E02A
:100A0000AF0EB11CF80160818CE492E00E948F026D
:100A10008501FFEFEF1AFF0AAECF8C3609F44BC009
:100A200074F48636D1F18936D1F65801F2E0AF0E72
:100A3000B11CF801608171814AE050E029C0833720
:100A400009F457C0883709F462C08F3641F658015F
:100A5000F2E0AF0EB11CF801808191816FE371E08B
:100A6000892B11F063E471E08CE492E00E9454035E
:100A7000CFCF66E471E08CE492E00E945403580109
:100A800082E0A80EB11CF8016081718142E050E063
:100A90008CE492E00E940703BBCF5801F4E0AF0E54
:100AA000B11CF80140815181628173818CE492E034
:100AB0000E94C003ADCFF80180809180A280B380F6
:100AC0000C5F1F4F2AE0B501A401B7FE0DC06DE217
:100AD0008CE492E00E948F0244275527BA014819FE
:100AE00059096A097B092AE08CE492E00E94BB0262
:100AF00090CF5801F2E0AF0EB11CF8016081718116
:100B0000B3CF69E471E08CE492E00E945403580191
:100B1000F2E0AF0EB11CF8016081718140E150E05C
:100B2000B7CF65E28CE492E00E948F0272CFDF9132
:100B3000CF911F910F91FF90EF90DF90CF90BF90DA
:100B4000AF909F908F9008951F920F920FB60F92C3
:100B500011242F933F938F939F93AF93BF938091D3
:100B6000440290914502A0914602B0914702309113
:100B7000430223E0230F2D3758F50196A11DB11D27
:100B8000209343028093440290934502A09346022F
:100B9000B09347028091480290914902A0914A0285
:100BA000B0914B020196A11DB11D80934802909314
:100BB0004902A0934A02B0934B02BF91AF919F911B
:100BC0008F913F912F910F900FBE0F901F9018950E
:100BD00026E8230F0296A11DB11DD2CF1F920F92BE
:100BE0000FB60F9211242F933F934F935F936F9300
:100BF0007F938F939F93AF93BF93EF93FF938CE477
:100C000092E00E942002FF91EF91BF91AF919F91DE
:100C10008F917F916F915F914F913F912F910F90A5
:100C20000FBE0F901F9018951F920F920FB60F9244
:100C300011242F938F939F93EF93FF93E0915C0286
:100C4000F0915D028081E0916202F091630282FD89
:100C50001BC09081809165028F5F8F732091660227
:100C6000821741F0E0916502F0E0E45BFD4F958F63
:100C700080936502FF91EF919F918F912F910F903B
:100C80000FBE0F901F9018958081F4CFCF93DF9304
:100C9000ECE4F2E01382128288EE93E0A0E0B0E090
:100CA00084839583A683B78384E091E091838083D6
:100CB00085EC90E09587848784EC90E09787868721
:100CC00080EC90E0918B808B81EC90E0938B828B19
:100CD00082EC90E0958B848B86EC90E0978B868BF2
:100CE000118E128E138E148ECFEFD2E086E08883A1
:100CF00087E0898388E08A8384E68B83198681E094
:100D000088871C821D821E821F828FEF9FEF9B8728
:100D10008A8761E086E00E940C0161E089810E947F
:100D20000C0161E08A810E940C01CBEFD2E01982B4
:100D3000188283E08A8382E08B8361E083E00E94F3
:100D40000C0161E08B810E940C0160E08A810E94AD
:100D5000DE0060E08B810E94DE00E9EEF2E080E0E0
:100D600090E0A0E8BFE386879787A08BB18B84E0F3
:100D700090E09183808385E090E09383828383E099
:100D800090E09583848387E090E09783868386E074
:100D900090E09187808788E090E09387828781E068
:100DA00090E095878487DF91CF910895789484B5FA
:100DB000826084BD84B5816084BD85B5826085BD57
:100DC00085B5816085BD80916E00816080936E00E5
:100DD00010928100809181008260809381008091D7
:100DE0008100816080938100809180008160809388
:100DF00080008091B10084608093B1008091B00048
:100E000081608093B00080917A00846080937A0042
:100E100080917A00826080937A0080917A0081606C
:100E200080937A0080917A00806880937A00109293
:100E3000C10010923F0210924002109241021092A3
:100E40004202E0915C02F0915D0282E08083E091D9
:100E50005802F09159021082E0915A02F0915B021F
:100E60008FEC808310926402E0916002F091610245
:100E700086E08083E0915E02F0915F028081806174
:100E80008083E0915E02F0915F02808188608083C0
:100E9000E0915E02F0915F02808180688083E09142
:100EA0005E02F0915F0280818F7D808361E089E046
:100EB0000E940C0161E08AE00E940C0162E08BE07C
:100EC0000E940C0162E08CE00E940C0161E08091C4
:100ED000E9020E940C0161E08091EB020E940C018A
:100EE00060E08091ED020E940C0161E08091EF02D0
:100EF0000E940C0161E08091F1020E940C0160E00F
:100F00008091F3020E940C018091F5029091F6020B
:100F1000892B09F18EE491E00E94410364E671E0BF
:100F20008CE492E00E9454034091F7025091F80241
:100F30006091F9027091FA0222E08CE492E00E9442
:100F4000C00362E171E08CE492E00E94B10285E7A7
:100F500091E00E94410384E891E09F938F938BE896
:100F600091E09F938F938CE492E09F938F930E94E4
:100F7000A6040F900F900F900F900F900F900CE41D
:100F800012E08CED282E81E0382E9FEB892E91E027
:100F9000992E26EAA22E21E0B22E40903F025090D8
:100FA000400260904102709042022FEF421A520AB2
:100FB000620A720A40923F025092400260924102DD
:100FC000709242028BE00E94B5006C018CE00E949E
:100FD000B5007C0180913E02882309F4BDC0CA940B
:100FE000CD2809F0A3C0EA94EF2809F09FC08091B2
:100FF0003D028F9380913C028F937F926F925F921C
:101000004F92BF92AF921F930F930E94A60410922B
:101010003E020E946D018DB79EB70A960FB6F894F6
:101020009EBF0FBE8DBF80E090E0892B09F4B5CF45
:101030000E940C02882309F4B0CF0E940000ADCFBB
:10104000C114D10409F092C0E114F10461F381E00C
:1010500080933E0231E020E080913C0290913D027D
:10106000019709F430E0C32FD22F2F933F937F9243
:101070006F925F924F929F928F921F930F930E9455
:10108000A6048DB79EB70A960FB6F8949EBF0FBE02
:101090008DBF80913C0290913D028C179D0719F203
:1010A000DF93CF939F938F93FF92EF92DF92CF9234
:1010B000809142028F93809141028F9380914002F0
:1010C0008F9380913F028F9389EF91E09F938F934D
:1010D0001F930F930E94A6048DB79EB740960FB63C
:1010E000F8949EBF0FBE8DBF209719F560E08091E8
:1010F000EB020E94DE0060E08091F1020E94DE00BF
:101100008091F5029091F602892B21F089E292E01C
:101110000E94410360E089E00E94DE0060E08AE016
:101120000E94DE00D0933D02C0933C020E946D01FC
:101130007ACFC130D10531F481E090E00E945C03A8
:1011400061E0E9CF82E090E00E945C0360E089E02A
:101150000E94DE0061E0E3CF91E0C916D10409F0FE
:101160006FCF91E0E916F10409F45DCFE114F104C9
:1011700009F059CF81E080933E0280913C0290912A
:101180003D02C2E0D0E0029711F4D0E0C0E0DF936E
:10119000CF937F926F925F924F923F922F921F93C5
:1011A0000F930E94A6048DB79EB70A960FB6F894C7
:1011B0009EBF0FBE8DBF6DCFA1E21A2EAA1BBB1B17
:1011C000FD010DC0AA1FBB1FEE1FFF1FA217B30713
:1011D000E407F50720F0A21BB30BE40BF50B661F29
:1011E000771F881F991F1A9469F7609570958095ED
:1011F00090959B01AC01BD01CF010895EE0FFF1F3B
:101200000590F491E02D09945058BB27AA270E941D
:101210001C090C948F0A0E94810A38F00E94880AE7
:1012200020F039F49F3F19F426F40C947E0A0EF452
:10123000E095E7FB0C94780AE92F0E94A00A58F386
:10124000BA17620773078407950720F079F4A6F5AB
:101250000C94C20A0EF4E0950B2EBA2FA02D0B01B0
:10126000B90190010C01CA01A0011124FF27591BEB
:1012700099F0593F50F4503E68F11A16F040A22FF1
:10128000232F342F4427585FF3CF46953795279562
:10129000A795F0405395C9F77EF41F16BA0B620B61
:1012A000730B840BBAF09150A1F0FF0FBB1F661FA8
:1012B000771F881FC2F70EC0BA0F621F731F841FEB
:1012C00048F4879577956795B795F7959E3F08F011
:1012D000B0CF9395880F08F09927EE0F97958795D3
:1012E00008950E94540A08F481E008950E948A0932
:1012F0000C948F0A0E94880A58F00E94810A40F0DC
:1013000029F45F3F29F00C94780A51110C94C30A18
:101310000C947E0A0E94A00A68F39923B1F3552326
:1013200091F3951B550BBB27AA27621773078407F8
:1013300038F09F5F5F4F220F331F441FAA1FA9F38E
:1013400035D00E2E3AF0E0E832D091505040E6957C
:10135000001CCAF72BD0FE2F29D0660F771F881FDD
:10136000BB1F261737074807AB07B0E809F0BB0BD0
:10137000802DBF01FF2793585F4F3AF09E3F5105E4
:1013800078F00C94780A0C94C30A5F3FE4F3983E1B
:10139000D4F3869577956795B795F7959F5FC9F7CD
:1013A000880F911D9695879597F90895E1E0660F4E
:1013B000771F881FBB1F621773078407BA0720F0C7
:1013C000621B730B840BBA0BEE1F88F7E095089530
:1013D0000E94A80A88F09F5798F0B92F9927B75113
:1013E000B0F0E1F0660F771F881F991F1AF0BA95C9
:1013F000C9F714C0B13091F00E94C20AB1E008955B
:101400000C94C20A672F782F8827B85F39F0B93F4C
:10141000CCF3869577956795B395D9F73EF490957B
:101420008095709561957F4F8F4F9F4F0895E894F9
:1014300009C097FB3EF490958095709561957F4F1C
:101440008F4F9F4F9923A9F0F92F96E9BB279395CA
:10145000F695879577956795B795F111F8CFFAF4DA
:10146000BB0F11F460FF1BC06F5F7F4F8F4F9F4F0B
:1014700016C0882311F096E911C0772321F09EE869
:10148000872F762F05C0662371F096E8862F70E0CF
:1014900060E02AF09A95660F771F881FDAF7880FA9
:1014A0009695879597F90895990F0008550FAA0BFF
:1014B000E0E8FEEF16161706E807F907C0F0121667
:1014C0001306E407F50798F0621B730B840B950B6A
:1014D00039F40A2661F0232B242B252B21F40895BF
:1014E0000A2609F4A140A6958FEF811D811D08955C
:1014F00097F99F6780E870E060E008959FEF80ECC7
:10150000089500240A941616170618060906089569
:1015100000240A9412161306140605060895092ECF
:101520000394000C11F4882352F0BB0F40F4BF2B3E
:1015300011F460FF04C06F5F7F4F8F4F9F4F08957E
:1015400057FD9058440F551F59F05F3F71F0479574
:10155000880F97FB991F61F09F3F79F08795089559
:10156000121613061406551FF2CF4695F1DF08C078
:10157000161617061806991FF1CF86957105610595
:1015800008940895E894BB2766277727CB0197F93D
:1015900008950E94540A08F48FEF08950E94E10A0A
:1015A0000C948F0A0E94810A38F00E94880A20F069
:1015B000952311F00C94780A0C947E0A11240C9453
:1015C000C30A0E94A00A70F3959FC1F3950F50E0E3
:1015D000551F629FF001729FBB27F00DB11D639FE5
:1015E000AA27F00DB11DAA1F649F6627B00DA11D8B
:1015F000661F829F2227B00DA11D621F739FB00D31
:10160000A11D621F839FA00D611D221F749F3327A0
:10161000A00D611D231F849F600D211D822F762F39
:101620006A2F11249F5750409AF0F1F088234AF016
:10163000EE0FFF1FBB1F661F771F881F9150504082
:10164000A9F79E3F510580F00C94780A0C94C30AC8
:101650005F3FE4F3983ED4F3869577956795B79509
:10166000F795E7959F5FC1F7FE2B880F911D969523
:10167000879597F908950E94540A880B990B08954D
:04168000F894FFCF0C
:10168400000000004202A201CF0191020002DE012B
:10169400F2010D0A0050574D313A20002050574DA9
:1016A400323A20002050574D2076616C75653A20FF
:1016B4000025006E616E00696E66006F7666006FCD
:1016C4006666006F6E003062003078003F0042545E
:1016D4005337393630204D6F746F7220436F6E74F8
:1016E400726F6C004C6962726172792076657273F4
:1016F400696F6E3A00627920526F626F6A61782E68
:10170400636F6D00425453373936007365747570D6
:1017140020636F6D706C6574653A206D6F746F72C1
:101724003A2025730A00256C202D20656E642070F4
:101734007265737320646972203D2025640A002554
:101744006C202D207072657373206677642C206E74
:101754006577446972203D2025640A00256C202D9C
:10176400207072657373207265762C206E657744E1
:101774006972203D2025640A00256C202D2066779F
:1017840064203D2025642C20726576203D2025644C
:101794002C20646972203D2025642C206E657744DA
:1017A4006972203D2025640A004D6F746F722073A6
:0817B400746F707065640000A1
:00000001FF
