:100000000C9462000C948A000C948A000C948A0070
:100010000C948A000C948A000C948A000C948A0038
:100020000C948A000C948A000C948A000C948A0028
:100030000C948A000C948A000C948A000C948A0018
:100040000C94F6040C948A000C9466050C944005FC
:100050000C948A000C948A000C948A000C948A00F8
:100060000C948A000C948A000000000024002700F1
:100070002A0000000000250028002B0000000000DE
:1000800023002600290004040404040404040202DA
:100090000202020203030303030301020408102007
:1000A0004080010204081020010204081020000012
:1000B0000008000201000003040700000000000027
:1000C0000000980511241FBECFEFD8E0DEBFCDBFE2
:1000D00011E0A0E0B1E0E0EBF4E102C005900D9288
:1000E000A23DB107D9F722E0A2EDB1E001C01D9217
:1000F000A339B207E1F710E0C2E6D0E004C02197CF
:10010000FE010E941408C136D107C9F70E940106FA
:100110000C94560A0C940000833081F028F481304E
:1001200099F08230A9F008958730A9F08830C9F09D
:100130008430B1F4809180008F7D03C08091800075
:100140008F7780938000089584B58F7784BD08955C
:1001500084B58F7DFBCF8091B0008F778093B00006
:1001600008958091B0008F7DF9CFCF93DF93282F32
:1001700030E0F901E255FF4F8491F901E656FF4F57
:10018000D491F901EA57FF4FC491CC23A1F081111A
:100190000E948C00EC2FF0E0EE0FFF1FE458FF4FA1
:1001A000A591B491EC91ED2381E090E009F480E019
:1001B000DF91CF91089580E090E0FACF1F93CF9325
:1001C000DF93282F30E0F901E255FF4F8491F901C8
:1001D000E656FF4FD491F901EA57FF4FC491CC2363
:1001E000A9F0162F81110E948C00EC2FF0E0EE0F89
:1001F000FF1FEE58FF4FA591B4918FB7F894EC9183
:10020000111108C0D095DE23DC938FBFDF91CF9111
:100210001F910895DE2BF8CFCF93DF9390E0FC0180
:10022000E656FF4F24918A579F4FFC018491882303
:10023000D1F090E0880F991FFC01E859FF4FA5917C
:10024000B491FC01EE58FF4FC591D491623071F426
:100250009FB7F8943C91822F809583238C93E881FB
:100260002E2B28839FBFDF91CF9108958FB7F894ED
:10027000EC912E2B2C938FBFF6CF1F93CF93DF9350
:10028000182FEB0161E00E940C01209739F460E027
:10029000812FDF91CF911F910C94DE00CF3FD105CC
:1002A00011F461E0F5CFE12FF0E0E255FF4FE4916A
:1002B000E33031F140F4E130B1F0E230E1F0C03848
:1002C000D1057CF7E4CFE73029F1E83059F1E4308B
:1002D000B1F780918000806280938000D0938B0082
:1002E000C0938A0004C084B5806884BDC7BDDF9117
:1002F000CF911F91089584B5806284BDC8BDF7CFAA
:1003000080918000806880938000D0938900C093A2
:100310008800EDCF8091B00080688093B000C093DA
:10032000B300E5CF8091B00080628093B000C093AD
:10033000B400DDCF3FB7F8948091E2019091E301E2
:10034000A091E401B091E50126B5A89B05C02F3F1F
:1003500019F00196A11DB11D3FBFBA2FA92F982FEB
:100360008827BC01CD01620F711D811D911D42E0E6
:10037000660F771F881F991F4A95D1F708958F92AE
:100380009F92AF92BF92CF92DF92EF92FF920E9424
:100390009A014B015C0184E6C82ED12CE12CF12C92
:1003A0000E949A01681979098A099B09683E73407D
:1003B00081059105A8F321E0C21AD108E108F108EE
:1003C00088EE880E83E0981EA11CB11CC114D104D4
:1003D000E104F10429F7FF90EF90DF90CF90BF90F8
:1003E000AF909F908F900895AF92BF92CF92DF927F
:1003F000EF92FF920F931F93CF93DF936C017B01DA
:100400008B01040F151FEB015E01AE18BF08C0176A
:10041000D10759F06991D601ED91FC910190F081DD
:10042000E02DC6010995892B79F7C501DF91CF91A0
:100430001F910F91FF90EF90DF90CF90BF90AF9002
:100440000895FC01538D448D252F30E0842F90E0DA
:10045000821B930B541710F0CF96089501970895BF
:10046000FC01918D828D981761F0A28DAE0FBF2F88
:10047000B11D5D968C91928D9F5F9F73928F90E0DE
:1004800008958FEF9FEF0895FC01918D828D98174D
:1004900031F0828DE80FF11D858D90E008958FEF8A
:1004A0009FEF0895FC01918D228D892F90E0805C53
:1004B0009F4F821B91098F739927089586EE91E0D3
:1004C0000E94520221E0892B09F420E0822F089536
:1004D00080E090E0892B29F00E945E0281110C944B
:1004E00000000895FC01A48DA80FB92FB11DA35AD7
:1004F000BF4F2C91848D90E001968F739927848F44
:10050000A689B7892C93A089B1898C918370806466
:100510008C93938D848D981306C00288F389E02D07
:1005200080818F7D80830895EF92FF920F931F93B8
:10053000CF93DF93EC0181E0888F9B8D8C8D981396
:100540001AC0E889F989808185FF15C09FB7F894A2
:10055000EE89FF896083E889F989808183708064EE
:1005600080839FBF81E090E0DF91CF911F910F9139
:10057000FF90EF900895F62E0B8D10E00F5F1F4F48
:100580000F731127E02E8C8D8E110CC00FB607FC57
:10059000FACFE889F989808185FFF5CFCE010E94E5
:1005A0007202F1CFEB8DEC0FFD2FF11DE35AFF4FDF
:1005B000F0829FB7F8940B8FEA89FB898081806273
:1005C000CFCF682F86EE91E00C949402CF93DF9307
:1005D000EC01888D8823B9F0AA89BB89E889F9895B
:1005E0008C9185FD03C0808186FD0DC00FB607FC90
:1005F000F7CF8C9185FFF2CF808185FFEDCFCE01C3
:100600000E947202E9CFDF91CF910895FC01019021
:100610000020E9F73197AF01481B590BBC0186EE6A
:1006200091E00C94F4018F929F92AF92BF920F933E
:100630001F93CF93DF93CDB7DEB7A1970FB6F89492
:10064000DEBF0FBECDBF19A2423008F44AE08E01D2
:100650000F5D1F4F842E912CB12CA12CA50194016C
:100660000E94F207E62FB901CA01EA30F4F4E05D16
:10067000D801EE938D01232B242B252B79F790E0C5
:1006800080E0109719F0CD010E940603A1960FB6E5
:10069000F894DEBF0FBECDBFDF91CF911F910F91B8
:1006A000BF90AF909F908F900895E95CE1CF2F921B
:1006B0003F924F925F926F927F928F929F92AF92F2
:1006C000BF92CF92DF92EF92FF920F931F93CF933F
:1006D000DF93CDB7DEB72F88388C8E01075E1F4FB2
:1006E000D12CC12CF101EC0DFD1D8081882309F472
:1006F0006AC1853209F061C181818E3219F48FEFB0
:10070000C81AD80AF101EC0DFD1DE18080ED8E0DB7
:100710008A3000F5EFEFCE1ADE0A0E2C000CFF082F
:10072000F0E3EF1AF1088FEFC81AD80AF101EC0DC7
:10073000FD1D8081843651F104F5883509F42BC103
:100740006CF4853209F438C1823409F453C08BE269
:1007500091E074C082E0E82EF12CE5CF823609F4F6
:100760004DC08336A1F77801F2E0EF0EF11CF801DD
:1007700080810E94E102870163C08C3609F4FAC0CF
:100780000CF5863609F449C0893609F7F8018080EE
:1007900091800E5F1F4F092C000CAA08BB084AE08D
:1007A000C501B401B7FE0BC08DE20E94E1026627CD
:1007B0007727CB01681979098A099B094AE00E94C9
:1007C00013033EC0833709F4DDC0883709F4E7C05E
:1007D0008F3609F0BCCF780182E0E80EF11CF801F9
:1007E00080819181892B09F4EBC082E191E00E9424
:1007F0000603C1CF89E191E00E9406037801E2E09F
:10080000EE0EF11CF80160817181072E000C880B3F
:10081000990B42E00E941303AECFF80180809180D3
:10082000A280B3800C5F1F4FA5019401C501B401E4
:100830000E94510A882341F08CE191E00E94060356
:10084000FFEFCF1ADF0A4ECF24013501E89477F885
:100850002FEF3FEF4FE75FE7C301B2010E94510A5C
:1008600081110DC02FEF3FEF4FE75FE7C301B201EA
:100870000E94870818161CF480E291E0DFCF2FEF6A
:100880003FEF4FE75FE4C501B4010E94DF0918168E
:100890001CF484E291E0D2CF2FEF3FEF4FE75FEC03
:1008A000C501B4010E94870887FDF3CF20E030E046
:1008B000A901C501B4010E94870887FF07C08DE226
:1008C0000E94E102B7FAB094B7F8B094F12C60E05E
:1008D00070E080E09FE3FE1440F420E030E040E26E
:1008E00051E40E948C08F394F6CFA50194010E9474
:1008F0001B084B015C010E94FE082B013C014AE0F1
:100900000E941303EE2009F49BCFC301B2010E94A1
:100910002D099B01AC01C501B4010E941A084B01CD
:100920005C018EE20E94E102EA94FFEFEF1609F407
:1009300087CF20E030E040E251E4C501B4010E94DD
:10094000E4092B013C010E94FE084B01B12CA12CB3
:100950004AE0C501B4010E941303C501B4010E941D
:100960002D099B01AC01C301B2010E941A084B0181
:100970005C01DACFF80180809180A280B3800C5FA7
:100980001F4F0DCFF801808191810E5F1F4F00979F
:1009900009F054CF55CF88E291E00E940603780118
:1009A000F2E0EF0EF11CF80160817181072E000C5E
:1009B000880B990B40E12ECF85E20E94E10240CFE7
:1009C00085E191E014CFDF91CF911F910F91FF90BE
:1009D000EF90DF90CF90BF90AF909F908F907F90DF
:1009E0006F905F904F903F902F9008951F920F92BD
:1009F0000FB60F9211242F933F938F939F93AF9332
:100A0000BF938091DE019091DF01A091E001B09150
:100A1000E1013091DD0123E0230F2D3758F50196D8
:100A2000A11DB11D2093DD018093DE019093DF01B4
:100A3000A093E001B093E1018091E2019091E30184
:100A4000A091E401B091E5010196A11DB11D809333
:100A5000E2019093E301A093E401B093E501BF911B
:100A6000AF919F918F913F912F910F900FBE0F905B
:100A70001F90189526E8230F0296A11DB11DD2CF15
:100A80001F920F920FB60F9211242F933F934F9303
:100A90005F936F937F938F939F93AF93BF93EF93E6
:100AA000FF9386EE91E00E947202FF91EF91BF9159
:100AB000AF919F918F917F916F915F914F913F91F6
:100AC0002F910F900FBE0F901F9018951F920F92AD
:100AD0000FB60F9211242F938F939F93EF93FF9351
:100AE000E091F601F091F7018081E091FC01F09135
:100AF000FD0182FD1BC090818091FF018F5F8F738C
:100B000020910002821741F0E091FF01F0E0EA51EC
:100B1000FE4F958F8093FF01FF91EF919F918F91F1
:100B20002F910F900FBE0F901F9018958081F4CFDA
:100B3000CF93DF93E6EEF1E01382128288EE93E02A
:100B4000A0E0B0E084839583A683B78384E091E03E
:100B50009183808385EC90E09587848784EC90E096
:100B60009787868780EC90E0918B808B81EC90E07A
:100B7000938B828B82EC90E0958B848B86EC90E05B
:100B8000978B868B118E128E138E148EC7E8D2E04F
:100B900085E0888386E0898387E08A8384E68B8387
:100BA000198681E088871C821D821E821F828FEF3A
:100BB0009FEF9B878A8761E085E00E940C0161E0DE
:100BC00089810E940C0161E08A810E940C01C3E8C6
:100BD000D2E01982188283E08A8382E08B8361E00D
:100BE00083E00E940C0161E08B810E940C0160E0B7
:100BF0008A810E94DE0060E08B81DF91CF910C94AE
:100C0000DE00789484B5826084BD84B5816084BD43
:100C100085B5826085BD85B5816085BD80916E009A
:100C2000816080936E0010928100809181008260CB
:100C30008093810080918100816080938100809108
:100C400080008160809380008091B10084608093F7
:100C5000B1008091B00081608093B00080917A00F3
:100C6000846080937A0080917A00826080937A0019
:100C700080917A00816080937A0080917A00806808
:100C800080937A001092C1001092D9011092DA017B
:100C90001092DB011092DC01C6EED1E0E091F6018A
:100CA000F091F70182E08083E091F201F091F3018D
:100CB0001082E091F401F091F5018FEC80831092A5
:100CC000FE01E091FA01F091FB0186E08083E09162
:100CD000F801F091F901808180618083E091F80151
:100CE000F091F901808188608083E091F801F091B2
:100CF000F901808180688083E091F801F091F90129
:100D000080818F7D808361E08DE00E940C0161E035
:100D10008CE00E940C0162E082E00E940C0162E023
:100D200083E00E940C018FEF80938A028DE291E0B4
:100D30009F938F9383E391E09F938F93DF93CF9360
:100D40000E9457030F900F900F900F900F900F90ED
:100D50008E0188248394912CAA24AA94BA2C8EE420
:100D6000282E81E0382E4090D9015090DA01609011
:100D7000DB017090DC019FEF491A590A690A790A70
:100D80004092D9015092DA016092DB017092DC014D
:100D900082E00E94B5006C0183E00E94B5007C01F6
:100DA0008091D801882309F4EBC0CA94CD2809F0BA
:100DB000A9C0EA94EF2809F0A5C08091D7018F93CC
:100DC0008091D6018F937F926F925F924F923F9264
:100DD0002F921F930F930E9457031092D8010E94E5
:100DE000BF018DB79EB70A960FB6F8949EBF0FBE8F
:100DF0008DBF80E090E0892B09F4B5CF0E945E02A0
:100E0000882309F4ACCF0E940000A9CFC114D104FB
:100E100009F0C0C0E114F10461F381E08093D801CE
:100E200091E080E02091D6013091D7012130310549
:100E300009F490E0C92FD82F8F939F937F926F92E0
:100E40005F924F9287E691E09F938F931F930F934A
:100E50000E9457038DB79EB70A960FB6F8949EBFAF
:100E60000FBE8DBF8091D6019091D7018C179D0741
:100E700009F4BFCFDF93CF939F938F93FF92EF92AD
:100E8000DF92CF928091DC018F938091DB018F9371
:100E90008091DA018F938091D9018F9381EA91E05B
:100EA0009F938F931F930F930E9457038DB79EB705
:100EB00040960FB6F8949EBF0FBE8DBF209729F5C0
:100EC00060E0809188020E94DE0060E080918902EB
:100ED0000E94DE006FEF70E0809187020E943D016A
:100EE000B0929202A09291021092900260E08DE086
:100EF0000E94DE0060E08CE00E94DE00D093D7010B
:100F0000C093D6010E94BF0174CFC130D105D1F486
:100F100061E0809188020E94DE0060E08091890299
:100F20000E94DE0060918A0270E0809187020E9438
:100F30003D01109292021092910281E08093900202
:100F400061E0D5CF60E0809188020E94DE0061E020
:100F5000809189020E94DE0060918A0270E0809197
:100F600087020E943D01909292028092910281E05C
:100F70008093900260E08DE00E94DE0061E0BBCFD4
:100F800091E0C916D10409F041CF91E0E916F104CE
:100F900009F42FCFE114F10409F02BCF81E0809305
:100FA000D8018091D6019091D701C2E0D0E002979C
:100FB00011F4D0E0C0E0DF93CF937F926F925F9205
:100FC0004F9284E891E09F938F931F930F930E9419
:100FD00057038DB79EB70A960FB6F8949EBF0FBE03
:100FE0008DBF40CFA1E21A2EAA1BBB1BFD010DC075
:100FF000AA1FBB1FEE1FFF1FA217B307E407F507C9
:1010000020F0A21BB30BE40BF50B661F771F881FA4
:10101000991F1A9469F760957095809590959B013A
:10102000AC01BD01CF010895EE0FFF1F0590F491B3
:10103000E02D09945058BB27AA270E9432080C942F
:10104000A5090E94970938F00E949E0920F039F402
:101050009F3F19F426F40C9494090EF4E095E7FBF5
:101060000C948E09E92F0E94B60958F3BA1762074B
:1010700073078407950720F079F4A6F50C94D80936
:101080000EF4E0950B2EBA2FA02D0B01B9019001A3
:101090000C01CA01A0011124FF27591B99F0593FE7
:1010A00050F4503E68F11A16F040A22F232F342F2F
:1010B0004427585FF3CF469537952795A795F0407D
:1010C0005395C9F77EF41F16BA0B620B730B840B92
:1010D000BAF09150A1F0FF0FBB1F661F771F881F4A
:1010E000C2F70EC0BA0F621F731F841F48F48795A2
:1010F00077956795B795F7959E3F08F0B0CF939594
:10110000880F08F09927EE0F9795879508950E940C
:101110006A0908F481E008950E94A0080C94A509CA
:101120000E949E0958F00E94970940F029F45F3F01
:1011300029F00C948E0951110C94D9090C9494093E
:101140000E94B60968F39923B1F3552391F3951BD7
:10115000550BBB27AA2762177307840738F09F5FD8
:101160005F4F220F331F441FAA1FA9F335D00E2E45
:101170003AF0E0E832D091505040E695001CCAF7B2
:101180002BD0FE2F29D0660F771F881FBB1F261775
:1011900037074807AB07B0E809F0BB0B802DBF014C
:1011A000FF2793585F4F3AF09E3F510578F00C941B
:1011B0008E090C94D9095F3FE4F3983ED4F38695E9
:1011C00077956795B795F7959F5FC9F7880F911D3C
:1011D0009695879597F90895E1E0660F771F881F28
:1011E000BB1F621773078407BA0720F0621B730BDB
:1011F000840BBA0BEE1F88F7E09508950E94BE0994
:1012000088F09F5798F0B92F9927B751B0F0E1F0C7
:10121000660F771F881F991F1AF0BA95C9F714C077
:10122000B13091F00E94D809B1E008950C94D8092A
:10123000672F782F8827B85F39F0B93FCCF38695B0
:1012400077956795B395D9F73EF49095809570950D
:1012500061957F4F8F4F9F4F0895E89409C097FB8A
:101260003EF490958095709561957F4F8F4F9F4F7D
:101270009923A9F0F92F96E9BB279395F6958795C1
:1012800077956795B795F111F8CFFAF4BB0F11F484
:1012900060FF1BC06F5F7F4F8F4F9F4F16C088232B
:1012A00011F096E911C0772321F09EE8872F762F61
:1012B00005C0662371F096E8862F70E060E02AF0A2
:1012C0009A95660F771F881FDAF7880F969587958E
:1012D00097F90895990F0008550FAA0BE0E8FEEF63
:1012E00016161706E807F907C0F012161306E407EA
:1012F000F50798F0621B730B840B950B39F40A26E3
:1013000061F0232B242B252B21F408950A2609F4C0
:10131000A140A6958FEF811D811D089597F99F67C4
:1013200080E870E060E008959FEF80EC089500246D
:101330000A941616170618060906089500240A943A
:1013400012161306140605060895092E0394000CC0
:1013500011F4882352F0BB0F40F4BF2B11F460FF4F
:1013600004C06F5F7F4F8F4F9F4F089557FD905878
:10137000440F551F59F05F3F71F04795880F97FB59
:10138000991F61F09F3F79F0879508951216130613
:101390001406551FF2CF4695F1DF08C01616170642
:1013A0001806991FF1CF8695710561050894089577
:1013B000E894BB2766277727CB0197F908950E9409
:1013C0006A0908F48FEF08950E94F7090C94A509A3
:1013D0000E94970938F00E949E0920F0952311F091
:1013E0000C948E090C94940911240C94D9090E9430
:1013F000B60970F3959FC1F3950F50E0551F629F9A
:10140000F001729FBB27F00DB11D639FAA27F00D5D
:10141000B11DAA1F649F6627B00DA11D661F829F84
:101420002227B00DA11D621F739FB00DA11D621F69
:10143000839FA00D611D221F749F3327A00D611D86
:10144000231F849F600D211D822F762F6A2F112468
:101450009F5750409AF0F1F088234AF0EE0FFF1F9B
:10146000BB1F661F771F881F91505040A9F79E3FF2
:10147000510580F00C948E090C94D9095F3FE4F378
:10148000983ED4F3869577956795B795F795E79548
:101490009F5FC1F7FE2B880F911D9695879597F951
:1014A00008950E946A09880B990B0895F894FFCF5C
:1014B000000000009402F4012102E6025202300210
:1014C00044026F6E006F6666003062006E616E00EF
:1014D000696E66006F7666003078003F004C4E32D1
:1014E000393800736574757020636F6D706C657446
:1014F000653A206D6F746F723A2025730A00256C6F
:10150000202D20656E64207072657373206469728B
:10151000203D2025640A00256C202D207072657303
:1015200073206677642C206E6577446972203D20B5
:1015300025640A00256C202D20707265737320725B
:1015400065762C206E6577446972203D2025640AFB
:1015500000256C202D20667764203D2025642C20FA
:10156000726576203D2025642C20646972203D2020
:1015700025642C206E6577446972203D2025640A1D
:02158000000069
:00000001FF
