:100000000C9462000C948A000C948A000C948A0070
:100010000C948A000C948A000C948A000C948A0038
:100020000C948A000C948A000C948A000C948A0028
:100030000C948A000C948A000C948A000C948A0018
:100040000C9460060C948A000C94D0060C94AA06BA
:100050000C948A000C948A000C948A000C948A00F8
:100060000C948A000C948A000000000024002700F1
:100070002A0000000000250028002B0000000000DE
:1000800023002600290004040404040404040202DA
:100090000202020203030303030301020408102007
:1000A0004080010204081020010204081020000012
:1000B0000008000201000003040700000000000027
:1000C0000000020711241FBECFEFD8E0DEBFCDBF76
:1000D00012E0A0E0B1E0EEEDFDE102C005900D926E
:1000E000A439B107D9F723E0A4E9B2E001C01D9219
:1000F000A437B207E1F710E0C2E6D0E004C02197D0
:10010000FE010E94DD0BC136D107C9F70E9492079C
:100110000C94ED0E0C940000833081F028F48130B3
:1001200099F08230A9F008958730A9F08830C9F09D
:100130008430B1F4809180008F7D03C08091800075
:100140008F7780938000089584B58F7784BD08955C
:1001500084B58F7DFBCF8091B0008F778093B00006
:1001600008958091B0008F7DF9CFCF93DF93282F32
:1001700030E0F901E255FF4F8491F901E656FF4F57
:10018000D491F901EA57FF4FC491CC23A1F081111A
:100190000E948C00EC2FF0E0EE0FFF1FE458FF4FA1
:1001A000A591B491EC91ED2381E090E009F480E019
:1001B000DF91CF91089580E090E0FACF1F93CF9325
:1001C000DF93282F30E0F901E255FF4F8491F901C8
:1001D000E656FF4FD491F901EA57FF4FC491CC2363
:1001E000A9F0162F81110E948C00EC2FF0E0EE0F89
:1001F000FF1FEE58FF4FA591B4918FB7F894EC9183
:10020000111108C0D095DE23DC938FBFDF91CF9111
:100210001F910895DE2BF8CFCF93DF9390E0FC0180
:10022000E656FF4F24918A579F4FFC018491882303
:10023000C9F090E0880F991FFC01E859FF4FA59184
:10024000B491FC01EE58FF4FC591D49161110DC0DE
:100250009FB7F8948C91209582238C9388812823D2
:1002600028839FBFDF91CF910895623051F49FB7EB
:10027000F8943C91822F809583238C93E8812E2BD8
:10028000EFCF8FB7F894EC912E2B2C938FBFEACF42
:100290003FB7F8948091AD029091AE02A091AF0269
:1002A000B091B00226B5A89B05C02F3F19F001966A
:1002B000A11DB11D3FBFBA2FA92F982F8827BC01C0
:1002C000CD01620F711D811D911D42E0660F771FE8
:1002D000881F991F4A95D1F708958F929F92AF92E8
:1002E000BF92CF92DF92EF92FF920E9448014B01A2
:1002F0005C0184EFC82EDD24D394E12CF12C0E9404
:100300004801681979098A099B09683E734081058B
:100310009105A8F321E0C21AD108E108F10888EE9E
:10032000880E83E0981EA11CB11CC114D104E10405
:10033000F10429F7FF90EF90DF90CF90BF90AF903E
:100340009F908F900895AF92BF92CF92DF92EF92DD
:10035000FF920F931F93CF93DF936C017B018B016F
:10036000040F151FEB015E01AE18BF08C017D107BF
:1003700059F06991D601ED91FC910190F081E02D49
:10038000C6010995892B79F7C501DF91CF911F919E
:100390000F91FF90EF90DF90CF90BF90AF900895B6
:1003A000FC01538D448D252F30E0842F90E0821B7B
:1003B000930B541710F0CF96089501970895FC0100
:1003C000918D828D981761F0A28DAE0FBF2FB11D58
:1003D0005D968C91928D9F5F9F73928F90E00895B0
:1003E0008FEF9FEF0895FC01918D828D981731F06A
:1003F000828DE80FF11D858D90E008958FEF9FEFBE
:100400000895FC01918D228D892F90E0805C9F4F93
:10041000821B91098F739927089581EB92E00E94C6
:10042000010221E0892B09F420E0822F089580E069
:1004300090E0892B29F00E940D0281110C9400009C
:100440000895FC01A48DA80FB92FB11DA35ABF4F69
:100450002C91848D90E001968F739927848FA689C3
:10046000B7892C93A089B1898C91837080648C9317
:10047000938D848D981306C00288F389E02D8081C6
:100480008F7D80830895EF92FF920F931F93CF93F8
:10049000DF93EC0181E0888F9B8D8C8D98131AC0BF
:1004A000E889F989808185FF15C09FB7F894EE89A6
:1004B000FF896083E889F989808183708064808303
:1004C0009FBF81E090E0DF91CF911F910F91FF904E
:1004D000EF900895F62E0B8D10E00F5F1F4F0F73F6
:1004E0001127E02E8C8D8E110CC00FB607FCFACFB1
:1004F000E889F989808185FFF5CFCE010E9421022C
:10050000F1CFEB8DEC0FFD2FF11DE35AFF4FF08281
:100510009FB7F8940B8FEA89FB8980818062CFCFE7
:100520000C944302CF93DF93EC01888D8823B9F0BC
:10053000AA89BB89E889F9898C9185FD03C08081EE
:1005400086FD0DC00FB607FCF7CF8C9185FFF2CF6B
:10055000808185FFEDCFCE010E942102E9CFDF919E
:10056000CF91089561E089E00E94DE0060E08AE0BA
:100570000C94DE00009741F460E089E00E94DE0008
:1005800060E08AE00C94DE008130910511F40C9457
:10059000B202029731F460E089E00E94DE0061E07F
:1005A000F0CF0895FB0101900020E9F73197AF01EA
:1005B000461B570B0C94A3018F929F92AF92BF9250
:1005C000EF92FF920F931F93CF93DF93CDB7DEB7D8
:1005D000A1970FB6F894DEBF0FBECDBF7C01FA0124
:1005E000CB0119A2223008F42AE08E010F5D1F4FC3
:1005F000822E912CB12CA12CBF01A50194010E9447
:10060000BB0BF901CA016A300CF5605DD8016E932D
:100610008D01232B242B252B79F790E080E0109778
:1006200021F0BD01C7010E94D202A1960FB6F89435
:10063000DEBF0FBECDBFDF91CF911F910F91FF9015
:10064000EF90BF90AF909F908F900895695CDECF40
:10065000CF92DF92EF92FF920F931F93CF93DF938E
:100660006B01770FEE08FF084A305105F1F42AE0DC
:10067000F7FE1CC0EC016DE20E9490028C01442741
:100680005527BA014C195D096E097F092AE0CE0190
:100690000E94DC02800F911FDF91CF911F910F917B
:1006A000FF90EF90DF90CF900895242FB701A6011F
:1006B000DF91CF911F910F91FF90EF90DF90CF903E
:1006C0000C94DC02CF93DF93BC0181EB92E00E949B
:1006D000D202EC0168E171E081EB92E00E94D2026B
:1006E0008C0F9D1FDF91CF9108956115710511F059
:1006F0000C94D20290E080E008950F931F93CF9363
:10070000DF938C0161E080914E030E94DE0061E086
:10071000809154030E94DE00C0915603D09157038C
:1007200090915003809151030130110509F047C0A9
:100730001C2F0D2FC92FD82F80915A0390915B0346
:10074000892B89F160E0812F0E94DE006BE171E06E
:1007500081EB92E00E9475034AE050E0612F702F18
:1007600081EB92E00E94280362E271E081EB92E06B
:100770000E9475034AE050E0BE0181EB92E00E94C6
:1007800028036AE271E081EB92E00E9475034AE07F
:1007900050E064E670E081EB92E00E94280387E37A
:1007A00091E00E94620361E08C2F0E940C0161E0E5
:1007B0008C2FDF91CF911F910F910C94DE008C0153
:1007C000BBCF2F923F924F925F926F927F928F9208
:1007D0009F92AF92BF92CF92DF92EF92FF921F93C0
:1007E000CF93DF93EC016A017B01722EAB0196017E
:1007F000CB01B6010E94F60C69E371E0811126C0BD
:1008000046015701E894B7F82FEF3FEF4FE75FE756
:10081000C501B4010E94F60C81110CC02FEF3FEF0F
:100820004FE75FE7C501B4010E94600A6DE371E024
:10083000181664F02FEF3FEF4FE75FE4C701B601F2
:100840000E94F10C1816B4F461E471E0CE01DF915E
:10085000CF911F91FF90EF90DF90CF90BF90AF901E
:100860009F908F907F906F905F904F903F902F90D0
:100870000C94D2022FEF3FEF4FE75FECC701B601B8
:100880000E94600A87FDE0CF20E030E0A901C701A7
:10089000B6010E94600A312C212C87FF09C06DE24D
:1008A000CE010E9490021C01F7FAF094F7F8F09440
:1008B00010E060E070E080E09FE3711641F020E01E
:1008C00030E040E251E40E94500C1F5FF6CFA701D8
:1008D00096010E94E40B2B013C010E94C20C4B01CB
:1008E0005C012AE0BC01A401CE010E94DC027C0173
:1008F000E20CF31C1123C1F1C501B4010E94650A89
:100900009B01AC01C301B2010E94E30B4B015C01EE
:100910006EE2CE010E949002E80EF91E115020F105
:1009200020E030E040E251E4C501B4010E94C60A73
:100930002B013C010E94C20C4B01B12CA12C2AE0DE
:10094000B501A401CE010E94DC02E80EF91EC5012A
:10095000B4010E94650A9B01AC01C301B2010E946F
:10096000E30B4B015C01DACFC701DF91CF911F91FF
:10097000FF90EF90DF90CF90BF90AF909F908F90BF
:100980007F906F905F904F903F902F9008958F923F
:100990009F92AF92BF92CF92DF92EF92FF920F930E
:1009A0001F93CF93DF93CDB7DEB7C988DA888E0166
:1009B0000D5E1F4FF12CE12CF601EE0DFF1D608145
:1009C000662309F4D5C0653209F0CDC081818E322D
:1009D00019F48FEFE81AF80AF601EE0DFF1D2181D8
:1009E00080ED820F8A3018F5EFEFEE1AFE0A022E24
:1009F000000C330B20533109FFEFEF1AFF0AF60109
:100A0000EE0DFF1D8081843689F144F5883509F4A7
:100A100099C084F4853209F4A5C0823409F44AC02F
:100A200062E571E081EB92E00E94750313C022E061
:100A300030E0E2CF823609F443C0833689F75801AB
:100A4000F2E0AF0EB11CF801608181EB92E00E94F0
:100A500090028501FFEFEF1AFF0AAECF8C3609F442
:100A60004BC074F48636D1F18936D1F65801F2E0E4
:100A7000AF0EB11CF801608171814AE050E029C0DD
:100A8000833709F457C0883709F462C08F3641F6BE
:100A90005801F2E0AF0EB11CF8018081918165E44C
:100AA00071E0892B11F069E471E081EB92E00E9422
:100AB0007503CFCF6CE471E081EB92E00E94750387
:100AC000580182E0A80EB11CF8016081718142E0FA
:100AD00050E081EB92E00E942803BBCF5801F4E084
:100AE000AF0EB11CF801408151816281738181EBAD
:100AF00092E00E94E103ADCFF80180809180A28056
:100B0000B3800C5F1F4F2AE0B501A401B7FE0DC0F2
:100B10006DE281EB92E00E94900244275527BA01D2
:100B2000481959096A097B092AE081EB92E00E9481
:100B3000DC0290CF5801F2E0AF0EB11CF8016081E9
:100B40007181B3CF6FE471E081EB92E00E94750395
:100B50005801F2E0AF0EB11CF8016081718140E1F3
:100B600050E0B7CF65E281EB92E00E94900272CF35
:100B7000DF91CF911F910F91FF90EF90DF90CF9079
:100B8000BF90AF909F908F900895CF92DF92EF9299
:100B9000FF92CF93DF93EC016A017B01DF93CF9348
:100BA0008091A7028F938091A6028F938091A502D6
:100BB0008F938091A4028F9384E591E09F938F930C
:100BC00081EB92E09F938F930E94C7048DB79EB7ED
:100BD0000A960FB6F8949EBF0FBE8DBF209751F5B1
:100BE00010929C0210929D0210929E0210929F02FF
:100BF00060E0809150030E94DE0060E08091560327
:100C00000E94DE0080915A0390915B03892B21F0B2
:100C100082E791E00E946203CE010E94BA02D09363
:100C20009B02C0939A02DF91CF91FF90EF90DF90EB
:100C3000CF900895C130D10569F4C0929C02D09242
:100C40009D02E0929E02F0929F0281E090E00E945D
:100C50007D03E2CFC230D105F9F6C0929C02D0925A
:100C60009D02E0929E02F0929F0282E090E0EFCF20
:100C70000F931F93CF93DF93EC01888199810097A5
:100C800059F02A813B812617370730F081E0DF9148
:100C9000CF911F910F9108958B016F5F7F4F0E943D
:100CA000200E009759F0998388831B830A832C8137
:100CB0003D81232B59F7FC011082E8CF80E0E7CF7C
:100CC0001F920F920FB60F9211242F933F938F9381
:100CD0009F93AF93BF938091A9029091AA02A09194
:100CE000AB02B091AC023091A80223E0230F2D3764
:100CF00058F50196A11DB11D2093A8028093A90269
:100D00009093AA02A093AB02B093AC028091AD0283
:100D10009091AE02A091AF02B091B0020196A11DD8
:100D2000B11D8093AD029093AE02A093AF02B09339
:100D3000B002BF91AF919F918F913F912F910F90F2
:100D40000FBE0F901F90189526E8230F0296A11D45
:100D5000B11DD2CF1F920F920FB60F9211242F9375
:100D60003F934F935F936F937F938F939F93AF9333
:100D7000BF93EF93FF9381EB92E00E942102FF91DA
:100D8000EF91BF91AF919F918F917F916F915F9103
:100D90004F913F912F910F900FBE0F901F9018957C
:100DA0001F920F920FB60F9211242F938F939F9340
:100DB000EF93FF93E091C102F091C2028081E09134
:100DC000C702F091C80282FD1BC090818091CA02C7
:100DD0008F5F8F732091CB02821741F0E091CA029E
:100DE000F0E0EF54FD4F958F8093CA02FF91EF9191
:100DF0009F918F912F910F900FBE0F901F9018957C
:100E00008081F4CFCF93DF93E1EBF2E01382128283
:100E100088EE93E0A0E0B0E084839583A683B78357
:100E20008AE091E09183808385EC90E095878487C8
:100E300084EC90E09787868780EC90E0918B808BA4
:100E400081EC90E0938B828B82EC90E0958B848B8D
:100E500086EC90E0978B868B118E128E138E148EFB
:100E6000C4E6D3E086E0888387E0898388E08A83CC
:100E700084E68B83198681E088871C821D821E820E
:100E80001F828FEF9FEF9B878A8761E086E00E9439
:100E90000C0161E089810E940C0161E08A810E945D
:100EA0000C01C0E6D3E01982188283E08A8382E0D5
:100EB0008B8361E083E00E940C0161E08B810E94E2
:100EC0000C0160E08A810E94DE0060E08B810E945C
:100ED000DE00EEE4F3E080E090E0A0E8BFE3868788
:100EE0009787A08BB18B84E090E09183808385E02D
:100EF00090E09383828383E090E09583848387E00E
:100F000090E09783868386E090E09187808788E0F1
:100F100090E09387828781E090E095878487DF91D6
:100F2000CF910895CF93DF93CDB7DEB728970FB653
:100F3000F894DEBF0FBECDBF789484B5826084BDC7
:100F400084B5816084BD85B5826085BD85B58160CD
:100F500085BD80916E00816080936E00109281004B
:100F60008091810082608093810080918100816006
:100F700080938100809180008160809380008091C7
:100F8000B10084608093B1008091B0008160809353
:100F9000B00080917A00846080937A0080917A001A
:100FA000826080937A0080917A00816080937A00D9
:100FB00080917A00806880937A001092C10010922C
:100FC000A4021092A5021092A6021092A7021092FB
:100FD0009C0210929D0210929E0210929F02E0913C
:100FE000C102F091C20282E08083E091BD02F091E3
:100FF000BE021082E091BF02F091C0028FEC8083AC
:101000001092C902E091C502F091C60286E0808389
:10101000E091C302F091C402808180618083E091FD
:10102000C302F091C402808188608083E091C30292
:10103000F091C402808180688083E091C302F091C6
:10104000C40280818F7D808361E089E00E940C0171
:1010500061E08AE00E940C0162E08BE00E940C01DA
:1010600062E08CE00E940C0161E080914E030E94DE
:101070000C0161E0809150030E940C0160E08091BE
:1010800052030E940C0161E0809154030E940C0104
:1010900061E0809156030E940C0160E0809158034A
:1010A0000E940C0180915A0390915B03892B09F1F6
:1010B00080E891E00E94620366E971E081EB92E0D2
:1010C0000E94750340915C0350915D0360915E0343
:1010D00070915F0322E081EB92E00E94E10368E1FE
:1010E00071E081EB92E00E94D20287EA91E00E94D7
:1010F00062031A8219821C821B821E821D8267E093
:1011000070E0CE0101960E94380629813A81811152
:1011100019C12115310519F0C9010E94970D1A82D4
:1011200019821E821D821C821B8266E070E0CE0145
:1011300001960E94380629813A8181110DC121153D
:10114000310519F0C9010E94970D1A8219821E8279
:101150001D821C821B828A818F9389818F9385ECEB
:1011600091E09F938F9381EB92E09F938F930E94E6
:10117000C70489819A810F900F900F900F900F9064
:101180000F90009711F00E94970D01EB12E082E0A2
:10119000482E6624639490EE292E91E0392E80919A
:1011A000A4029091A502A091A602B091A702019677
:1011B000A11DB11D8093A4029093A502A093A60245
:1011C000B093A7028FB7F894C090A902D090AA025A
:1011D000E090AB02F090AC028FBF8BE00E94B500B4
:1011E0005C018CE00E94B5004C018091A0029091BE
:1011F000A102A091A202B091A302892B8A2B8B2B72
:1012000041F0A114B10409F4D4C08114910409F48B
:10121000D0C080919C0290919D02A0919E02B091BD
:101220009F020097A105B105F1F1A7019601281BC6
:10123000390B4A0B5B0BDA01C901893B38E893078C
:10124000A105B10508F092C081154DE79407A105ED
:10125000B10548F1BF93AF939F938F938091A702FD
:101260008F938091A6028F938091A5028F93809196
:10127000A4028F933F922F921F930F930E94C70453
:1012800090E080E00E94BA020E946D0180919A0273
:1012900090919B020E94BA020E946D010FB6F894D1
:1012A000DEBF0FBECDBF91E0A916B10409F0B9C0F1
:1012B00021E08216910409F0DDC08091A002909196
:1012C000A102A091A202B091A3020097A105B105CD
:1012D00009F46FC046015701881A990AAA0ABB0A85
:1012E00080919A0290919B023091A4023F83409199
:1012F000A50248877090A6025090A70252E3851677
:101300009104A104B10408F061C00E94BA02BF9226
:10131000AF929F928F925F927F9288858F939F81E9
:101320009F932EE132E03F932F931F930F930E94E0
:10133000C7041092A0021092A1021092A202109271
:10134000A30232C087E090E09E838D8366EB71E05C
:10135000C9010E94E60EE9CE86E090E09E838D836F
:101360006EEB71E0C9010E94E60EF5CEBF93AF931C
:101370009F938F938091A7028F938091A6028F9362
:101380008091A5028F938091A4028F9322E032E096
:101390003F932F931F930F930E94C704B701A60199
:1013A00090E080E00E94C5050FB6F894DEBF0FBE46
:1013B000CDBF20E030E0232B09F4F1CE0E940D02D6
:1013C000882309F4E4CE0E940000E1CEA0909802A8
:1013D000B09099028A159B0511F4B12CA12CBF92F3
:1013E000AF925F927F9298859F932F812F9346E3D0
:1013F00052E05F934F931F930F930E94C704B7016E
:10140000A601C5010E94C5051092A0021092A1027A
:101410001092A2021092A3021092990210929802C6
:10142000C3CFAB2839F5C092A002D092A102E092BE
:10143000A202F092A30241E050E05093990240933F
:1014400098020E94B2021F926F928091A7028F931E
:101450008091A6028F938091A5028F938091A40220
:101460008F938FE492E09F938F931F930F930E942B
:10147000C7049ACF892809F09CCFC092A002D092CD
:10148000A102E092A202F092A30282E090E0909387
:101490009902809398020E94BA021F924F92809103
:1014A000A7028F938091A6028F938091A5028F93BC
:1014B0008091A4028F9321E732E03F932F93D5CF01
:1014C0000E94A20A08F481E00895E89409C097FBFD
:1014D0003EF490958095709561957F4F8F4F9F4F0B
:1014E0009923A9F0F92F96E9BB279395F69587954F
:1014F00077956795B795F111F8CFFAF4BB0F11F412
:1015000060FF1BC06F5F7F4F8F4F9F4F16C08823B8
:1015100011F096E911C0772321F09EE8872F762FEE
:1015200005C0662371F096E8862F70E060E02AF02F
:101530009A95660F771F881FDAF7880F969587951B
:1015400097F90895990F0008550FAA0BE0E8FEEFF0
:1015500016161706E807F907C0F012161306E40777
:10156000F50798F0621B730B840B950B39F40A2670
:1015700061F0232B242B252B21F408950A2609F44E
:10158000A140A6958FEF811D811D08950E94D90A63
:101590000C944A0B0E943C0B38F00E94430B20F045
:1015A000952311F00C94330B0C94390B11240C94EB
:1015B0007E0B0E945B0B70F3959FC1F3950F50E07B
:1015C000551F629FF001729FBB27F00DB11D639FF5
:1015D000AA27F00DB11DAA1F649F6627B00DA11D9B
:1015E000661F829F2227B00DA11D621F739FB00D41
:1015F000A11D621F839FA00D611D221F749F3327B1
:10160000A00D611D231F849F600D211D822F762F49
:101610006A2F11249F5750409AF0F1F088234AF026
:10162000EE0FFF1FBB1F661F771F881F9150504092
:10163000A9F79E3F510580F00C94330B0C947E0B60
:101640005F3FE4F3983ED4F3869577956795B79519
:10165000F795E7959F5FC1F7FE2B880F911D969533
:10166000879597F9089597F99F6780E870E060E0A3
:1016700008959FEF80EC089500240A94161617062B
:1016800018060906089500240A9412161306140673
:1016900005060895092E0394000C11F4882352F0D6
:1016A000BB0F40F4BF2B11F460FF04C06F5F7F4F8E
:1016B0008F4F9F4F089557FD9058440F551F59F075
:1016C0005F3F71F04795880F97FB991F61F09F3F2F
:1016D00079F087950895121613061406551FF2CF58
:1016E0004695F1DF08C0161617061806991FF1CFA8
:1016F00086957105610508940895E894BB276627CF
:101700007727CB0197F908952F923F924F925F92DE
:101710006F927F928F929F92AF92BF92CF92DF9201
:10172000EF92FF920F931F93CF93DF93CDB7DEB766
:10173000CA1BDB0B0FB6F894DEBF0FBECDBF0994FA
:101740002A88398848885F846E847D848C849B8451
:10175000AA84B984C884DF80EE80FD800C811B815F
:10176000AA81B981CE0FD11D0FB6F894DEBF0FBE8E
:10177000CDBFED010895A1E21A2EAA1BBB1BFD01EE
:101780000DC0AA1FBB1FEE1FFF1FA217B307E40760
:10179000F50720F0A21BB30BE40BF50B661F771FB8
:1017A000881F991F1A9469F7609570958095909598
:1017B0009B01AC01BD01CF010895EE0FFF1F059005
:1017C000F491E02D09945058BB27AA270E94FB0BE7
:1017D0000C944A0B0E943C0B38F00E94430B20F003
:1017E00039F49F3F19F426F40C94390B0EF4E0956C
:1017F000E7FB0C94330BE92F0E945B0B58F3BA17ED
:10180000620773078407950720F079F4A6F50C9416
:101810007D0B0EF4E0950B2EBA2FA02D0B01B90114
:1018200090010C01CA01A0011124FF27591B99F056
:10183000593F50F4503E68F11A16F040A22F232F62
:10184000342F4427585FF3CF469537952795A795B2
:10185000F0405395C9F77EF41F16BA0B620B730B59
:10186000840BBAF09150A1F0FF0FBB1F661F771FCA
:10187000881FC2F70EC0BA0F621F731F841F48F47F
:10188000879577956795B795F7959E3F08F0B0CF08
:101890009395880F08F09927EE0F979587950895EF
:1018A0000E94640C0C944A0B0E94430B58F00E9457
:1018B0003C0B40F029F45F3F29F00C94330B51119D
:1018C0000C947E0B0C94390B0E945B0B68F39923EC
:1018D000B1F3552391F3951B550BBB27AA2762172C
:1018E0007307840738F09F5F5F4F220F331F441F39
:1018F000AA1FA9F335D00E2E3AF0E0E832D091506D
:101900005040E695001CCAF72BD0FE2F29D0660F59
:10191000771F881FBB1F261737074807AB07B0E89C
:1019200009F0BB0B802DBF01FF2793585F4F3AF0A2
:101930009E3F510578F00C94330B0C947E0B5F3F67
:10194000E4F3983ED4F3869577956795B795F79528
:101950009F5FC9F7880F911D9695879597F9089510
:10196000E1E0660F771F881FBB1F621773078407AC
:10197000BA0720F0621B730B840BBA0BEE1F88F7BB
:10198000E09508950E94630B88F09F5798F0B92F57
:101990009927B751B0F0E1F0660F771F881F991FA4
:1019A0001AF0BA95C9F714C0B13091F00E947D0BBE
:1019B000B1E008950C947D0B672F782F8827B85FCE
:1019C00039F0B93FCCF3869577956795B395D9F7FC
:1019D0003EF490958095709561957F4F8F4F9F4F06
:1019E00008950E94A20A08F48FEF08950E94A20AA7
:1019F000880B990B08950F931F93CF93DF93823039
:101A0000910510F482E090E0E0917203F09173038D
:101A100030E020E0B0E0A0E0309799F421153105E6
:101A200009F44AC0281B390B24303105D8F58A81C6
:101A30009B816115710589F1FB0193838283FE010E
:101A400011C0408151810281138148175907E0F08C
:101A50004817590799F4109761F012960C93129752
:101A600013961C933296CF01DF91CF911F910F9166
:101A700008950093720310937303F4CF2115310579
:101A800051F04217530738F0A901DB019A01BD015B
:101A9000DF01F801C1CFEF01F9CF90937303809379
:101AA0007203CDCFFE01E20FF31F81939193225079
:101AB000310939832883D7CF209170033091710386
:101AC000232B41F4209102013091030130937103E3
:101AD00020937003209100013091010121153105FF
:101AE00041F42DB73EB74091040150910501241BEC
:101AF000350BE0917003F0917103E217F307A0F446
:101B00002E1B3F0B2817390778F0AC014E5F5F4F53
:101B10002417350748F04E0F5F1F50937103409311
:101B20007003819391939FCFF0E0E0E09CCFCF933F
:101B3000DF930097E9F0FC01329713821282A091A3
:101B40007203B0917303ED0130E020E01097A1F42F
:101B500020813181820F931F209170033091710396
:101B60002817390709F061C0F0937103E0937003FF
:101B7000DF91CF910895EA01CE17DF07E8F54A819A
:101B80005B819E0141155105B1F7E901FB83EA83B1
:101B900049915991C40FD51FEC17FD0761F480815D
:101BA00091810296840F951FE90199838883828130
:101BB00093819B838A83F0E0E0E012968D919C9163
:101BC00013970097B9F52D913C911197CD0102968D
:101BD000820F931F209170033091710328173907EA
:101BE00039F6309751F51092730310927203B09347
:101BF0007103A0937003BCCFD383C2834081518112
:101C0000840F951FC817D90761F44E5F5F4F888115
:101C10009981480F591F518340838A819B81938307
:101C200082832115310509F0B0CFF0937303E0935F
:101C300072039ECFFD01DC01C0CF13821282D7CF89
:101C4000B0E0A0E0E6E2FEE00C94860B8C01009789
:101C500051F4CB010E94FB0C8C01C801CDB7DEB75B
:101C6000E0E10C94A20BFC01E60FF71F9C0122504F
:101C70003109E217F30708F49DC0D901CD91DC9139
:101C80001197C617D70798F0C530D10530F3CE01AC
:101C900004978617970708F3C61BD70B2297C193A3
:101CA000D1936D937C93CF010E94970DD6CF5B01AA
:101CB000AC1ABD0A4C018C0E9D1EA0917203B0910E
:101CC0007303512C412CF12CE12C109731F58091AC
:101CD0007003909171038815990509F05CC0461650
:101CE000570608F058C080910001909101010097BB
:101CF00041F48DB79EB74091040150910501841BBA
:101D0000950BE817F90708F055C0F0937103E093BD
:101D10007003F90171836083A0CF8D919C9111971D
:101D200012966C90129713967C901397A815B9058C
:101D300059F56C0142E0C40ED11CCA14DB0420F139
:101D4000AC014A195B09DA011296159780F062829C
:101D5000738251834083D9016D937C93E114F10424
:101D600071F0D7011396FC93EE93129776CF2296DB
:101D70008C0F9D1FF90191838083F301EFCFF093C6
:101D80007303E093720369CF4816590608F42C01D7
:101D90007D01D3019ACFCB010E94FB0C7C010097FF
:101DA00049F0AE01B8010E94DD0EC8010E94970DF6
:101DB000870153CF10E000E050CFFB01DC0102C0EF
:101DC00001900D9241505040D8F70895FB01DC017D
:0E1DD00001900D920020E1F70895F894FFCFE6
:101DDE00000074038000000000004302A301D00144
:101DEE0092020102DF01F3010D0A0050574D313A04
:101DFE0020002050574D323A20002050574D20766B
:101E0E00616C75653A200025006E616E00696E6624
:101E1E00006F7666006F6666006F6E00306200308F
:101E2E0078003F00256C202D20736574446972651F
:101E3E006374696F6E202D20646972203D202564C5
:101E4E000A004D6F746F722073746F70706564004A
:101E5E0042545337393630204D6F746F7220436FB2
:101E6E006E74726F6C004C69627261727920766565
:101E7E007273696F6E3A00627920526F626F6A6197
:101E8E00782E636F6D00756E6B6E6F776E004254B9
:101E9E005337393600736574757020636F6D706CCF
:101EAE006574653A206D6F746F723A2025730A005F
:101EBE00256C202D206D6F746F722061626F7574AA
:101ECE002074696D656F7574203D20256C206D73CF
:101EDE000A00256C202D206D6F746F722074696D51
:101EEE00656F7574203D20256C206D730A00256C7E
:101EFE00202D20746F6F20717569636B203D202536
:101F0E006C206D730A00256C202D20656E64207088
:101F1E007265737320646972203D2025640A002562
:101F2E006C202D20707265737320646F776E20663F
:101F3E0077642C206E6577446972203D2025640AF3
:101F4E0000256C202D20707265737320646F776E80
:101F5E00207265762C206E6577446972203D2025AF
:041F6E00640A000001
:00000001FF
