:100000000C9462000C9426040C94FF030C948A0058
:100010000C948A000C948A000C948A000C948A0038
:100020000C948A000C948A000C948A000C948A0028
:100030000C948A000C948A000C948A000C948A0018
:100040000C94B5030C948A000C9473040C944D0426
:100050000C948A000C948A000C948A000C948A00F8
:100060000C948A000C948A000000000024002700F1
:100070002A0000000000250028002B0000000000DE
:1000800023002600290004040404040404040202DA
:100090000202020203030303030301020408102007
:1000A0004080010204081020010204081020000012
:1000B0000008000201000003040700000000000027
:1000C0000000A50411241FBECFEFD8E0DEBFCDBFD6
:1000D00011E0A0E0B1E0E6E7FDE002C005900D927E
:1000E000AC36B107D9F722E0ACE6B1E001C01D9211
:1000F000A532B207E1F710E0C2E6D0E004C02197D4
:10010000FE010E94B306C136D107C9F70E94F6046A
:100110000C94B9060C940000833081F028F48130EF
:1001200099F08230A9F008958730A9F08830C9F09D
:100130008430B1F4809180008F7D03C08091800075
:100140008F7780938000089584B58F7784BD08955C
:1001500084B58F7DFBCF8091B0008F778093B00006
:1001600008958091B0008F7DF9CFCF93DF93282F32
:1001700030E0F901E255FF4F8491F901E656FF4F57
:10018000D491F901EA57FF4FC491CC23A1F081111A
:100190000E948C00EC2FF0E0EE0FFF1FE458FF4FA1
:1001A000A591B491EC91ED2381E090E009F480E019
:1001B000DF91CF91089580E090E0FACF1F93CF9325
:1001C000DF93282F30E0F901E255FF4F8491F901C8
:1001D000E656FF4FD491F901EA57FF4FC491CC2363
:1001E000A9F0162F81110E948C00EC2FF0E0EE0F89
:1001F000FF1FEE58FF4FA591B4918FB7F894EC9183
:10020000111108C0D095DE23DC938FBFDF91CF9111
:100210001F910895DE2BF8CFCF93DF9390E0FC0180
:10022000E656FF4F24918A579F4FFC018491882303
:10023000D1F090E0880F991FFC01E859FF4FA5917C
:10024000B491FC01EE58FF4FC591D491623071F426
:100250009FB7F8943C91822F809583238C93E881FB
:100260002E2B28839FBFDF91CF9108958FB7F894ED
:10027000EC912E2B2C938FBFF6CF1F93CF93DF9350
:10028000182FEB0161E00E940C01209739F460E027
:10029000812FDF91CF911F910C94DE00CF3FD105CC
:1002A00011F461E0F5CFE12FF0E0E255FF4FE4916A
:1002B000E33031F140F4E130B1F0E230E1F0C03848
:1002C000D1057CF7E4CFE73029F1E83059F1E4308B
:1002D000B1F780918000806280938000D0938B0082
:1002E000C0938A0004C084B5806884BDC7BDDF9117
:1002F000CF911F91089584B5806284BDC8BDF7CFAA
:1003000080918000806880938000D0938900C093A2
:100310008800EDCF8091B00080688093B000C093DA
:10032000B300E5CF8091B00080628093B000C093AD
:10033000B400DDCF3FB7F8948091780190917901B6
:10034000A0917A01B0917B0126B5A89B05C02F3FF3
:1003500019F00196A11DB11D3FBFBA2FA92F982FEB
:100360008827BC01CD01620F711D811D911D42E0E6
:10037000660F771F881F991F4A95D1F708958F92AE
:100380009F92AF92BF92CF92DF92EF92FF920E9424
:100390009A014B015C0184E6C82ED12CE12CF12C92
:1003A0000E949A01681979098A099B09683E73407D
:1003B00081059105A8F321E0C21AD108E108F108EE
:1003C00088EE880E83E0981EA11CB11CC114D104D4
:1003D000E104F10429F7FF90EF90DF90CF90BF90F8
:1003E000AF909F908F9008950895AF92BF92CF9253
:1003F000DF92EF92FF920F931F93CF93DF936C01E5
:100400007B018B01040F151FEB015E01AE18BF08C5
:10041000C017D10759F06991D601ED91FC91019077
:10042000F081E02DC6010995892B79F7C501DF918F
:10043000CF911F910F91FF90EF90DF90CF90BF90E1
:10044000AF900895FC01538D448D252F30E0842F0B
:1004500090E0821B930B541710F0CF9608950197EC
:100460000895FC01918D828D981761F0A28DAE0FD9
:10047000BF2FB11D5D968C91928D9F5F9F73928F60
:1004800090E008958FEF9FEF0895FC01918D828D8C
:10049000981731F0828DE80FF11D858D90E0089559
:1004A0008FEF9FEF0895FC01918D228D892F90E0B1
:1004B000805C9F4F821B91098F73992708958CE769
:1004C00091E00E94530221E0892B09F420E0822F61
:1004D000089580E090E0892B29F00E945F0281114D
:1004E0000C9400000895FC01A48DA80FB92FB11D34
:1004F000A35ABF4F2C91848D90E001968F7399275A
:10050000848FA689B7892C93A089B1898C91837037
:1005100080648C93938D848D981306C00288F38930
:10052000E02D80818F7D80830895EF92FF920F935D
:100530001F93CF93DF93EC0181E0888F9B8D8C8D8F
:1005400098131AC0E889F989808185FF15C09FB783
:10055000F894EE89FF896083E889F9898081837046
:10056000806480839FBF81E090E0DF91CF911F91F5
:100570000F91FF90EF900895F62E0B8D10E00F5F16
:100580001F4F0F731127E02E8C8D8E110CC00FB6EC
:1005900007FCFACFE889F989808185FFF5CFCE0184
:1005A0000E947302F1CFEB8DEC0FFD2FF11DE35A8A
:1005B000FF4FF0829FB7F8940B8FEA89FB89808107
:1005C0008062CFCFCF93DF93EC01888D8823B9F081
:1005D000AA89BB89E889F9898C9185FD03C080814E
:1005E00086FD0DC00FB607FCF7CF8C9185FFF2CFCB
:1005F000808185FFEDCFCE010E947302E9CFDF91AC
:10060000CF910895FC0101900020E9F73197AF01E7
:10061000481B590BBC018CE791E00C94F5018F92BB
:100620009F92AF92BF920F931F93CF93DF93CDB75B
:10063000DEB7A1970FB6F894DEBF0FBECDBF19A2EB
:10064000423008F44AE08E010F5D1F4F842E912C3A
:10065000B12CA12CA50194010E949106E62FB901AD
:10066000CA01EA30F4F4E05DD801EE938D01232B4A
:10067000242B252B79F790E080E0109719F0CD011D
:100680000E940203A1960FB6F894DEBF0FBECDBF45
:10069000DF91CF911F910F91BF90AF909F908F905E
:1006A0000895E95CE1CFCF92DF92EF92FF92CF9372
:1006B000DF936B017C016DE28CE791E00E94950273
:1006C000EC0166277727CB016C197D098E099F09FC
:1006D0004AE00E940F038C0F9D1FDF91CF91FF9086
:1006E000EF90DF90CF900895CF93DF930E940203A5
:1006F000EC0186E191E00E9402038C0F9D1FDF91C7
:10070000CF910895CF93DF93BC01990F880B990B7C
:1007100097FF0CC00E945303EC0186E191E00E9418
:1007200002038C0F9D1FDF91CF9108954AE00E9434
:100730000F03F2CF82E00E94B50090936D01809389
:100740006C0189E191E00E94020380916C0190911B
:100750006D010C948203BC01990F880B990B97FDD6
:100760000C9453034AE00C940F031F920F920FB6A0
:100770000F9211242F933F938F939F93AF93BF9327
:100780008091740190917501A0917601B0917701EB
:100790003091730123E0230F2D3758F50196A11DE9
:1007A000B11D209373018093740190937501A09300
:1007B0007601B09377018091780190917901A091B1
:1007C0007A01B0917B010196A11DB11D8093780142
:1007D00090937901A0937A01B0937B01BF91AF917F
:1007E0009F918F913F912F910F900FBE0F901F906F
:1007F000189526E8230F0296A11DB11DD2CF1F9296
:100800000F920FB60F9211242F933F934F935F9344
:100810006F937F938F939F93AF93BF93EF93FF93C8
:10082000E0910201F09103010995FF91EF91BF91D1
:10083000AF919F918F917F916F915F914F913F9178
:100840002F910F900FBE0F901F9018951F920F922F
:100850000FB60F9211242F933F934F935F936F9393
:100860007F938F939F93AF93BF93EF93FF93E09109
:100870000001F09101010995FF91EF91BF91AF91B6
:100880009F918F917F916F915F914F913F912F91A8
:100890000F900FBE0F901F9018951F920F920FB6DA
:1008A0000F9211242F933F934F935F936F937F93F6
:1008B0008F939F93AF93BF93EF93FF938CE791E058
:1008C0000E947302FF91EF91BF91AF919F918F9121
:1008D0007F916F915F914F913F912F910F900FBE3C
:1008E0000F901F9018951F920F920FB60F92112420
:1008F0002F938F939F93EF93FF93E0918C01F0914F
:100900008D018081E0919201F091930182FD1BC0E5
:100910009081809195018F5F8F732091960182174E
:1009200041F0E0919501F0E0E458FE4F958F8093FF
:100930009501FF91EF919F918F912F910F900FBE95
:100940000F901F9018958081F4CFCF93DF93ECE741
:10095000F1E01382128288EE93E0A0E0B0E084839D
:100960009583A683B78388E091E09183808385ECAB
:1009700090E09587848784EC90E09787868780EC69
:1009800090E0918B808B81EC90E0938B828B82EC5A
:1009900090E0958B848B86EC90E0978B868B118E04
:1009A000128E138E148EC9E1D2E083E0888382E038
:1009B000898384E08A8384E68B83198681E0888733
:1009C0001C821D821E821F828FEF9FEF9B878A876A
:1009D00061E083E00E940C0161E089810E940C01CA
:1009E00061E08A81DF91CF910C940C01789484B5F9
:1009F000826084BD84B5816084BD85B5826085BD1B
:100A000085B5816085BD80916E00816080936E00A8
:100A1000109281008091810082608093810080919A
:100A2000810081608093810080918000816080934B
:100A300080008091B10084608093B1008091B0000B
:100A400081608093B00080917A00846080937A0006
:100A500080917A00826080937A0080917A00816030
:100A600080937A0080917A00806880937A00109257
:100A7000C100E0918C01F0918D0182E08083E091D2
:100A80008801F09189011082E0918A01F0918B0137
:100A90008FEC808310929401E0919001F09191018C
:100AA00086E08083E0918E01F0918F0180818061EA
:100AB0008083E0918E01F0918F0180818860808336
:100AC000E0918E01F0918F01808180688083E091B8
:100AD0008E01F0918F0180818F7D808361E08DE0B8
:100AE0000E940C0161E08AE00E940C0162E08CE04F
:100AF0000E940C0162E08BE00E940C018AE993E005
:100B00009093010180930001809169008C7F816046
:100B100080936900E89A8FE780931C0288E291E055
:100B20000E94740380E0882E80E0982ECC24C39429
:100B3000D12CAA24AA94BA2C8091710190917201AF
:100B4000019690937201809371018CE00E94B50030
:100B50007C018BE00E94B5008C018091700188239C
:100B600009F4CAC0EA94EF2879F40130110561F460
:100B700087E391E00E94020380916E0190916F01E2
:100B80000E948203109270010E94BF01BEC0E11456
:100B9000F10409F05FC00115110509F4B6C083E442
:100BA00091E00E94740381E08093700191E080E005
:100BB00020916E0130916F012130310509F490E0F0
:100BC000C92FD82F80916E0190916F018C179D07CE
:100BD00009F49BC080917101909172010E94AB0356
:100BE00087E591E00E940203C7010E94AB038EE5F6
:100BF00091E00E940203C8010E94AB0385E691E0E8
:100C00000E940203CE010E9482032097D1F560E08A
:100C100080911A020E94DE0060E080911B020E9417
:100C2000DE006FEF70E0809119020E943D01B092EA
:100C30002402A09223021092220260E08DE00E9422
:100C4000DE0060E08AE00E94DE00D0936F01C09376
:100C50006E019ACF0115110509F057C08DE491E09E
:100C60000E94740381E08093700180916E019091E5
:100C70006F01D0E0C0E0029709F4A4CFC2E0D0E059
:100C8000A1CFC130D105D1F461E080911A020E9458
:100C9000DE0060E080911B020E94DE0060911C0279
:100CA00070E0809119020E943D011092240210927E
:100CB000230281E08093220261E0C0CF60E0809156
:100CC0001A020E94DE0061E080911B020E94DE0099
:100CD00060911C0270E0809119020E943D01D09247
:100CE0002402C092230281E08093220260E08DE022
:100CF0000E94DE0061E0A6CF81E0E816F10409F071
:100D000046CF0130110509F0A5CF8114910409F4F3
:100D100013CF0E945F02882309F40ECF0E940000C7
:100D20000BCFA1E21A2EAA1BBB1BFD010DC0AA1FEF
:100D3000BB1FEE1FFF1FA217B307E407F50720F044
:100D4000A21BB30BE40BF50B661F771F881F991FBF
:100D50001A9469F760957095809590959B01AC0108
:100D6000BD01CF010895EE0FFF1F0590F491E02D16
:060D70000994F894FFCF86
:100D7600F401F401000000009502F5012202E202EE
:100D86005302310245020D0A00696E746572757070
:100D9600743A2032202D2000736574757020636FBD
:100DA6006D706C65746500656E6420707265737332
:100DB6003A200070726573732066776400707265FE
:100DC60073732072657600206677643A200020727D
:0C0DD60065763A2000206469723A200023
:00000001FF
